:100000000C94F90C0C942A0D0C942A0D0C942A0DC6
:100010000C942A0D0C942A0D0C942A0D0C942A0D84
:100020000C942A0D0C942A0D0C942A0D0C942A0D74
:100030000C942A0D0C942A0D0C942A0D0C942A0D64
:100040000C942A0D0C942A0D0C942A0D0C942A0D54
:100050000C942A0D0C942A0D0C942A0D0C94E8256E
:100060000C942A0D0C9441290C94152A0C942A0DF9
:100070000C942A0D0C942A0D0C942A0D0C942A0D24
:100080000C942A0D0C942A0D0C942A0D0C942A0D14
:100090000C946E290C94542A0C942A0D0C942A0D5D
:1000A0000C942A0D0C942A0D0C942A0D0C942A0DF4
:1000B0000C942A0D0C942A0D0C942A0D0C942A0DE4
:1000C0000C942A0D0C942A0D0C942A0D0C949B2947
:1000D0000C94932A0C942A0D0C94C8290C94D22ABF
:1000E0000C942A0DFFD0FFE0FFCFFF64FFD1FF3259
:1000F000380C060201FF64FFD0FFFE001F1AFEFB52
:100100000E0374075F20FFFC15FB0EFC00000006C9
:100110000000030E0E080300E0E0E0E0E0E0E0E0B5
:10012000E0E00000E0E00806060A0108E76767670C
:1001300067670C0E1C0E0100066006600C603FF045
:100140003FF018C019801980FFE0FFE03300330052
:10015000630066000A11220C01FE04001F007F806C
:100160007780E5C0E400FC007E001F8007C005C06A
:10017000E5C0E5C07F803F0004000400120E2A1491
:1001800001003C04007E0C00C31800C31000C33003
:1001900000E760007E670018CD800098C00198C01D
:1001A0000318C00318C0060F800C07000E0E1C10A9
:1001B00001001F007F8071C071C073803F001E006E
:1001C0007E38F730E3B0E1F0E0E07FF01FBC0306DB
:1001D00006080308E0C0C0C0C0C00411110802FD39
:1001E00030707060E0E0E0E0E0E0E0E0E06070707F
:1001F000300411110802FDC0C0E0E0606070707052
:1002000070706060E0E0C0C00807070C0207663C41
:1002100018FF183C660C0C181404000200020002BF
:100220000002000200FFF0FFF002000200020002E4
:100230000002000405050601FE707060E0C00503C1
:1002400003070104F8F8F8030303060200E0E0E006
:10025000060F0F0901FF0C0C0C0C18181830303069
:1002600060606060C00A0E1C0B01001E007F006110
:1002700080E1C0E1C0E1C0E1C0E1C0E1C0E1C0E1B6
:10028000C061807F801E00060E0E0B02001C7CFCED
:10029000DC1C1C1C1C1C1C1C1C1C1C0A0E1C0B012A
:1002A000001F007F8061C0E1C001C001C003800762
:1002B000800F001E0038007000FFC0FFC00A0E1C37
:1002C0000B01003E007F00E380038003801F001FBE
:1002D00000038001C001C0E1C0F3807F003E000B3D
:1002E0000E1C0B010007800F800F801B803B8033AA
:1002F0008073806380E380FFE0FFE003800380037E
:10030000800A0E1C0B0100FF80FF80E000E000E08F
:1003100000FF00FF80E18001C001C0E1C0E3807FF9
:10032000003E000A0E1C0B01001E003F8061806031
:1003300000E000DF00FF80E180E1C0E1C0E1C061DA
:10034000807F801E000A0E1C0B0100FFC0FFC00151
:10035000C0038003800780070007000E000E001C0A
:10036000001C003C0038000A0E1C0B01003F007FFF
:1003700080E1C0E1C0E1807F003F007380E1C0E127
:10038000C0E1C0E1C07F803F000A0E1C0B01001ECF
:10039000007F00E180E180E1C0E1C0F3C07FC019CF
:1003A000C00180E18063807F003E00030A0A0703EA
:1003B00000E0E0E000000000E0E0E0040C0C0601DA
:1003C000FE707070000000007060E0C0C00C0A1485
:1003D000140401001000E003801C00E000C000389D
:1003E00000070001C000300C050A140403FFF0FFF1
:1003F000F00000FFF0FFF00C0A14140401800070FC
:10040000001C0003800070003001C00E003800C0E6
:1004100000090E1C0B01003E007F00C380438003D7
:1004200080070006000C00180018001800000018D3
:100430000018001312361501FC01F8000FFE001E13
:1004400007803803C071FDC073FCE0E71CE0E71CC7
:10045000E0E71CE0E71CE0E71CE0E73CC073FFC0FE
:1004600071E7803800001E04000FFC0003FC000E42
:100470000E1C0E00000780078007C00FC00EC01CB6
:10048000E01CE01C6038703FF03FF870387038E0D6
:100490001C0B0E1C0D0100FF00FF80E1C0E1C0E15C
:1004A000C0E380FF00FF80E0C0E0E0E0E0E0E0FFCC
:1004B000C0FF000D0E1C0F01000F803FE070706048
:1004C00070E000E000E000E000E000E078607070C4
:1004D000F03FE00F800C0E1C0E0100FF00FFC0E19A
:1004E000E0E0E0E070E070E070E070E070E070E0AC
:1004F000E0E1E0FFC0FF000A0E1C0C0100FFC0FF9E
:10050000C0E000E000E000E000FF80FF80E000E0ED
:1005100000E000E000FFC0FFC0090E1C0B0100FF5F
:1005200080FF80E000E000E000E000FF80FF80E06E
:1005300000E000E000E000E000E0000D0E1C0F0114
:10054000000FC01FF038387038E000E000E1F8E13B
:10055000F8E038E038703878383FF80FF00C0E1CAF
:100560000E0100E070E070E070E070E070E070FF9D
:10057000F0FFF0E070E070E070E070E070E07003B9
:100580000E0E050100E0E0E0E0E0E0E0E0E0E0E0A9
:10059000E0E0E00A0E1C0C010001C001C001C00136
:1005A000C001C001C001C001C001C0E1C0E1C0F391
:1005B000C07F803E000B0E1C0D0100E1E0E3C0E3B4
:1005C00080E700EE00FC00FC00FE00EE00E700E724
:1005D00080E3C0E1C0E0E00A0E1C0B0100E000E097
:1005E00000E000E000E000E000E000E000E000E00B
:1005F00000E000E000FFC0FFC0100E1C120100F878
:100600001FF81FFC3FFC3FFC37EC77EE77EE67E608
:10061000E7E7E7E7C7E3C7E3C7E3870D0E1C0F0172
:1006200000F038F838F838FC38EE38EE38E738E7BC
:1006300038E3B8E3B8E1F8E1F8E0F8E0F80E0E1CB2
:100640001001000FC03FF070706038E018E01CE04F
:100650001CE01CE01CE018603870703FF00FC00B0D
:100660000E1C0D0100FF00FFC0E1C0E0E0E0E0E093
:10067000E0E1C0FFC0FF00E000E000E000E000E0DB
:10068000000F0E1C1101000FC03FE070706038E0D9
:1006900018E01CE01CE01CE01CE018603870783F9B
:1006A000FE0FFE0B0E1C0D0100FF80FFC0E0E0E01E
:1006B000E0E0E0E0E0FF80FFC0E1C0E0E0E0E0E09B
:1006C000E0E0E0E0600C0E1C0E01001F803FC06007
:1006D000E0E0E0E000FC007F801FE003E00070E06D
:1006E00070E0607FC01F800C0E1C0E0100FFF0FF49
:1006F000F00E000E000E000E000E000E000E000E9A
:10070000000E000E000E000E000C0E1C0E0100E08C
:1007100070E070E070E070E070E070E070E070E059
:1007200070E070E07070E03FC01F800E0E1C0F0084
:1007300000F01C701C703C3838383838701C701C45
:10074000701EE00EE00FC007C007C00780140E2A1D
:10075000140000F0F0F070F0E070F0E071F8E0717B
:10076000F8E03999C03999C03B9DC03B9DC01B0D35
:10077000801F0F801F0F801F0F800E07000C0E1CA4
:100780000E0100E07070E078E039C01F801F000F9C
:10079000000F001F803BC039C070E0E0F0E0700C3B
:1007A0000E1C0D0000F07070F038E038E01DC01D28
:1007B000C00F800F000700070007000700070007B1
:1007C000000B0E1C0D01007FE07FE001E003C00381
:1007D0008007800F001E001E003C007800F800FF1C
:1007E000E0FFE00512120802FCF8F8E0E0E0E0E0CB
:1007F000E0E0E0E0E0E0E0E0E0F8F8060F0F0901FB
:10080000FFC0C0606060303030101818180C0C0C3D
:100810000512120802FCF8F83838383838383838F9
:10082000383838383838F8F80A0C181405000C0035
:100830000C000C0012001200330021002100408047
:100840004080C0C080400A02040A00FDFFC0FFC013
:1008500005040405FF0CE0703018090A140B0100B0
:100860003E007F80E3801F807F80E380E380E38021
:10087000FF8039800A0E1C0C0100E000E000E0005F
:10088000E000EF00FF80E1C0E1C0E1C0E1C0E1C0F5
:10089000E180FF80EF00090A140B01003E007F0099
:1008A000E380E380E000E000E380E3807F003E003F
:1008B0000A0E1C0C010001C001C001C001C03DC0F6
:1008C0007FC0E1C0E1C0E1C0E1C0E1C0E1C07FC0E4
:1008D0003DC0090A140B01001E007F00E380E38085
:1008E000FF80FF80E000E3807F803E00070E0E085F
:1008F00001001E3E3838FEFE38383838383838386F
:100900000A0E1C0C01FC3DC07FC071C0E1C0E1C0FB
:10091000E1C0E1C0E1C07FC03DC001C061C07F80D7
:100920003F00090E1C0B0100E000E000E000E000C9
:10093000EF00FF80E380E380E380E380E380E380F7
:10094000E380E380030E0E050100E0E0E000E0E05C
:10095000E0E0E0E0E0E0E0E00412120702FC70708A
:100960007000707070707070707070707070F0E007
:10097000090E1C0B0100E000E000E000E000E78051
:10098000E700EE00FC00FC00FC00EE00E700E700E2
:10099000E380030E0E050100E0E0E0E0E0E0E0E0CF
:1009A000E0E0E0E0E0E00F0A14120100EF3CFFFE9F
:1009B000E3CEE386E386E386E386E386E386E386A7
:1009C000090A140B0100EF00FF80E380E380E3805D
:1009D000E380E380E380E380E3800A0A140C0100F3
:1009E0001E007F806180E1C0E1C0E1C0E1C06180A4
:1009F0007F801E000A0E1C0C01FCEF00FF80E180CE
:100A0000E1C0E1C0E1C0E1C0E1C0FF80EF00E00073
:100A1000E000E000E0000A0E1C0C01FC3DC07FC0BD
:100A2000E1C0E1C0E1C0E1C0E1C0E1C07FC03DC0C4
:100A300001C001C001C001C0060A0A080100ECFCA7
:100A4000F0E0E0E0E0E0E0E0090A140B01003E0025
:100A5000FF00E380E0007E001F000380E380FF00D2
:100A60003E00070D0D090100083838FEFE38383801
:100A70003838383E1E090A140B0100E380E380E396
:100A800080E380E380E380E380E380FF807B800B72
:100A90000A140B0000E0E071C071C031803B803B64
:100AA000801B001F001F000E00110A1E110000E134
:100AB000C38061E30073E7007367003377003F761C
:100AC000003F3E003E3E001E3C001E1C00090A1472
:100AD0000B0100E380730077003E001C003E003EE7
:100AE000007700E380E3800B0E1C0B00FCE0E0715C
:100AF000C071C039803B803B801F001F000F000E7B
:100B0000000E000E001C001C00080A0A0A0100FF6B
:100B1000FF070E1C3870E0FFFF0713130A02FB0EDD
:100B20003E383838383830F0C0F070383838383817
:100B30003E0E0115150703FB808080808080808039
:100B400080808080808080808080808080071313F8
:100B50000A02FBE0F03838383838381C061C3838C0
:100B600038383838F0E00B03060B000430607FC0E3
:100B7000C780FFFFFFFFFFFFFFFFFFFFFFFFFFFF3C
:100B8000FFFFFFFFFFFFFFFFFFFFFFFFFFFFFFFF75
:100B9000FFFFFF000000060000030E0E0903FCE04B
:100BA000E00000E0E0E0E0E0E0E0E0E0E0090E1C72
:100BB0000B01FE020002003E007F00E780E780E8B4
:100BC00000E800EB80F3807F003E00200020000A58
:100BD0000E1C0C01001F003FC071C070007000FEB1
:100BE00000FE0070007000700070007000FFC0FF19
:100BF000C00A0A140C010380405E8021004080403E
:100C0000804080408021005E8080400B0E1C0D01E2
:100C100000E0E0E1C071C07180FBE0FBE01F00FF7D
:100C2000E0FFE00E000E000E000E000E000112129A
:100C30000703FC808080808080808000008080802E
:100C400080808080800812120A01FC3E7EE0E07005
:100C50003C7EE7E7E7FE7C1E070787FE38070202B7
:100C600007000CEEEE0F0E1C11010007C01FF0373D
:100C7000986FCCCCE49C029C029CE28CE2CFC647ED
:100C80008420181C700FC007090908010578CC7C66
:100C9000CCCCFC2400FE0A08100C010139C0718084
:100CA0007380E700E7007380718039C00B050A0D7F
:100CB0000104FFE0FFE0002000200020FF0F0E1CD9
:100CC00011010007C01FF03F986FECCC648C628F5D
:100CD000C28FC28C62CC664C6420181C700FC00698
:100CE000020206000CFCFC05050507010970888856
:100CF00088700C0C18140400020002000200FFF0BF
:100D0000FFF002000200020000000000FFF0FFF010
:100D100006080808010678CC0C1830E0FCFC060731
:100D20000708010778CC0C300CCC780404040401CB
:100D30000C306060C0FF0911220B01FD3F8079007B
:100D4000F900F900F900F90079000900090009002B
:100D5000090009000900090009000900090003034E
:100D600003060205E0E0E00505050501FB407018FB
:100D700018F004080806010630F03030303030300A
:100D80000709090901053844C6C6C6443800FE0AE9
:100D900008100C0101E7006380738039C039C0730B
:100DA000806380E7000E0E1C1001007030F03030C0
:100DB0006030C030C03180319C333C063C066C0C46
:100DC000CC18FC180C300C0F0E1C1101007030F008
:100DD00020306030C030C03180333C336606060CB2
:100DE0000E0C1C1830307E307E0E0E1C1001007868
:100DF00018CC300C3030600CC0CCC0799C01BC03E6
:100E00003C066C06CC0CFC080C180C090E1C0B01E3
:100E1000FC0E000E0000000E000E000E003C0070E4
:100E200000E000E000E180E1807F803E000E1428B9
:100E30000E00000C000E000600030000000000077A
:100E400080078007C00FC00EC01CE01CE01C60388B
:100E5000703FF03FF870387038E01C0E14280E0018
:100E60000000C001C00180030000000000078007EF
:100E70008007C00FC00EC01CE01CE01C6038703F33
:100E8000F03FF870387038E01C0E14280E00000394
:100E900080078006C00CC0000000000780078007A4
:100EA000C00FC00EC01CE01CE01C6038703FF03F5B
:100EB000F870387038E01C0E13260E000006400F44
:100EC000C00880000000000780078007C00FC00E28
:100ED000C01CE01CE01C6038703FF03FF8703870B8
:100EE00038E01C0E13260F00000EE00EE00000009C
:100EF0000000000380078007C007C00EC00EE01C82
:100F0000E01C701C703FF83FF87038701CE01C0D3E
:100F1000152A0F01000700088008800880070000DC
:100F200000000007000F800F801DC01DC01DC038CD
:100F3000E038E030607FF07FF0E038E038E03813F0
:100F40000E2A14000000FFE001FFE003F000037030
:100F5000000770000770000E7FC00E7FC01C70007D
:100F60001FF0003FF000707000707FE0E07FE00D48
:100F700012240F01FC0F803FE070F06070E000E091
:100F800000E000E000E000E078607070F03FE01FFB
:100F9000800400078001800F000A14280C01003033
:100FA00000380018000C0000000000FFC0FFC0E087
:100FB00000E000E000E000FF80FF80E000E000E0F3
:100FC00000E000FFC0FFC00A14280C010007000663
:100FD000000C00080000000000FFC0FFC0E000E0BF
:100FE00000E000E000FF80FF80E000E000E000E0C3
:100FF00000FFC0FFC00A14280C01001C001E0036B0
:1010000000230000000000FFC0FFC0E000E000E09F
:1010100000E000FF80FF80E000E000E000E000FF73
:10102000C0FFC00A13260C01007700770000000003
:10103000000000FFC0FFC0E000E000E000E000FFB3
:1010400080FF80E000E000E000E000FFC0FFC0059E
:10105000141405FF00E060301000003838383838CC
:101060003838383838383838380414140501003026
:101070007060C00000E0E0E0E0E0E0E0E0E0E0E040
:10108000E0E0E00514140500007070D888000070DE
:101090007070707070707070707070707007131373
:1010A000070000EEEE00000038383838383838389D
:1010B0003838383838380D0E1C0E00007F807FE03D
:1010C00070F0707070387038FE38FE3870387038D4
:1010D000707070F07FE07F800D13260F01000C40D0
:1010E0001F80110000000000F038F838F838FC3894
:1010F000EE38EE38E738E738E3B8E3B8E1F8E1F87E
:10110000E0F8E0F80E14281001001C000C000600A6
:101110000200000000000FC03FF070706038E0185F
:10112000E01CE01CE01CE01CE018603870703FF030
:101130000FC00E142810010000E001C00180030060
:10114000000000000FC03FF070706038E018E01C35
:10115000E01CE01CE01CE018603870703FF00FC02D
:101160000E1428100100070007800DC008C0000001
:1011700000000FC03FF070706038E018E01CE01C09
:10118000E01CE01CE018603870703FF00FC00E13D8
:101190002610010007C00FC00000000000000FC0B3
:1011A0003FF070306038E018E01CE01CE01CE01CF0
:1011B000E018703878F03FF00FC00E1326100100D1
:1011C0001DC01DC00000000000000FC03FF0707087
:1011D0006038E018E01CE01CE01CE01CE0186038FF
:1011E00070703FF00FC00A0A141405018040C0C09F
:1011F000618033000C000C00120021004080804010
:101200000F10201000FF000207E61FFC383C303CA6
:10121000706C70EE71CE738E770E7E0C7C1C38383D
:101220003FF0EFE040000C14280E010038001800D9
:101230000C00060000000000E070E070E070E0705C
:10124000E070E070E070E070E070E070E07071E01D
:101250003FC01F800C14280E010001C00380030052
:10126000060000000000E070E070E070E070E070E8
:10127000E070E070E070E070E070E07071E03FC03E
:101280001F800C14280E01000E000F001B0011809F
:1012900000000000E070E070E070E070E070E0706E
:1012A000E070E070E070E070E07071E03FC01F80BF
:1012B0000C13260E01001DC01DC000000000000020
:1012C000E070E070E070E070E070E070E070E0709E
:1012D000E070E070E07070E03FC01F800C13260DDE
:1012E000000001800300020000000000F07070F0B8
:1012F00038E038E01DC01DC00F800F000700070058
:1013000007000700070007000B0E1C0D0100E0009E
:10131000E000FF00FFC0E1C0E0E0E0E0E0E0E1C0AD
:10132000FF80FE00E000E000E0000A0E1C0C01005F
:101330003E007F80E380E380E300E700EE00EE0004
:10134000E780E3C0E1C0FDC0FFC0EF800910200BC3
:1013500001007000300018000800000000003E008E
:101360007F80E3801F807F80E380E380E380FF80D5
:1013700039800910200B0100070006000C000C004A
:10138000000000003E007F80E38003803F80FB8000
:10139000E380E380FF8079800910200B01001C00AE
:1013A0001E0036002300000000003E007F80E38026
:1013B0001F807F80E380E380E380FF803980090E17
:1013C0001C0B01003F003E00000000003E007F803B
:1013D000E3801F807F80E380E380E380FF803980AB
:1013E000090F1E0B010077007700000000000000CD
:1013F0003E007F80E3801F807F80E380E380E38086
:10140000FF8039800911220B01001C0022002200FC
:1014100022001C00000000003E007F80E3801F804F
:101420007F80E380E380E380FF803980100A14121C
:1014300001003E7C7FFEE3871FFF7FFFE380E380A8
:10144000E3C7FEFE3C7C090E1C0B01FC3E007F0046
:10145000E380E380E000E000E380E3807F003E0083
:1014600010001E0006003E000910200B0100700055
:10147000300018000800000000001E007F00E3801C
:10148000E380FF80FF80E000E3807F803E00091062
:10149000200B0100070006000C00080000000000FF
:1014A0001E007F00E380E380FF80FF80E000E38098
:1014B0007F803E000910200B01001C001E0036003A
:1014C0002300000000001E007F00E380E380FF8017
:1014D000FF80E000E3807F803E00090F1E0B0100CB
:1014E000770077000000000000001E007F00E3800E
:1014F000E380FF80FF80E000E3807F803E00040FF8
:101500000F050000C0E06030007070707070707087
:10151000707070040F0F0401007060C08000E0E084
:10152000E0E0E0E0E0E0E0E0070F0F05FF00387CDE
:101530004CC60038383838383838383838070E0E46
:10154000060000EEEE0000383838383838383838C1
:10155000380A0E1C0C010039800F001F0063001FA9
:10156000807F8061C0E1C0E1C0E1C0E1C061C07FB7
:10157000801F00090E1C0B01003E003C0000000013
:1015800000EF00FF80E380E380E380E380E380E31B
:1015900080E380E3800A10200C010030001800185E
:1015A000000C00000000001E007F806180E1C0E1AF
:1015B000C0E1C0E1C061807F801E000A10200C01E4
:1015C000000300060006000C00000000001E007F63
:1015D000806180E1C0E1C0E1C0E1C061807F801E28
:1015E000000A10200C01000C001E001A003300003D
:1015F0000000001E007F806180E1C0E1C0E1C0E129
:10160000C061807F801E000A0E1C0C01001F003E7E
:1016100000000000001E007F806180E1C0E1C0E1A9
:10162000C0E1C061807F801E000A0F1E0C01003BDC
:10163000803B800000000000001E007F806180E190
:10164000C0E1C0E1C0E1C061807F801E000C0810D5
:1016500014040206000E000000FFF0FFF000000678
:10166000000E000A0C180C010000C01F807F806370
:1016700080E7C0EDC0E9C0F1C071807F80DE0080EE
:10168000000910200B010070003000180008000055
:10169000000000E380E380E380E380E380E380E315
:1016A00080E380FF807B800910200B01000700068B
:1016B000000C00080000000000E380E380E380E30A
:1016C00080E380E380E380E380FF807B800910205B
:1016D0000B01001C001C003600220000000000E38B
:1016E00080E380E380E380E380E380E380E380FFC6
:1016F000807B80090F1E0B0100770077000000003F
:10170000000000E380E380E380E380E380E380E3A4
:1017100080E380FF807B800B13260B00FC0180039D
:101720000002000400000070E071C071C039C03BCD
:10173000801B801F801F000F000E000E004E00FC5B
:101740000078000A12240C01FCE000E000E000E058
:1017500000EF00FF80E180E1C0E1C0E1C0E1C0E155
:10176000C0FF80FF00E000E000E000E0000B12247A
:101770000B00FC3B803B8000000000E1E071C07189
:10178000C073803B803B801F001F001F000E000EB7
:10179000000C001C001C000000090A02080B0C0DC4
:1017A0000706030401000000000000000000000024
:1017B0000000000000000000000000000000000029
:1017C00000000011100F00000000000000000000E9
:1017D00000000000000000000000000000010210F6
:1017E000202008081020401020408002010201083B
:1017F00004020101020408102040808040201008EB
:101800000402018004020180402010080402010843
:1018100004020101020408102040800102040810A3
:101820002040800505050507050808080802020292
:10183000020A0A080804040404010101010101016B
:10184000010303030303030303040707070C0C0C42
:101850000C0C0C0C0C02020202060606060606061A
:10186000060B0B0B0B0B0B0B0B00002000230026B1
:101870000029002C002F00320000010000030106A7
:1018800001090100002200250028002B002E003154
:1018900000340002010000050108010B01000021D5
:1018A00000240027002A002D003000330001010031
:1018B00000040107010A01494E46494E4954594E58
:1018C000414E000020410000C84200401C4620BCA0
:1018D000BE4CCA1B0E5AAEC59D74CDCCCC3D0AD7AA
:1018E000233C17B7D13877CC2B329595E6241FB11E
:1018F0004F0A00407A10F35A00A0724E18090010E7
:10190000A5D4E80000E87648170000E40B54020074
:1019100000CA9A3B000000E1F5050000809698009F
:10192000000040420F000000A086010000001027C8
:1019300000000000E8030000000064000000000058
:101940000A00000000000100000000002C76D8888A
:10195000DC674F0823DFC1DFAE59E1B1B796E5E39D
:10196000E453C63AE651997696E8E6C28426EB89B6
:101970008C9B62ED407C6FFCEFBC9C9F40F2BAA553
:101980006FA5F490055A2AF75C936B6CF9676DC1EB
:101990001BFCE0E40D47FEF520E6B500D0ED902EEF
:1019A0000300943577050080841E080000204E0A4D
:1019B000000000C80C333333330F986E128311418B
:1019C000EF8D2114893BE65516CFFEE6DB18D18456
:1019D0004B381BF77C1D901DA4BBE424203284727D
:1019E0005E228100C9F124ECA1E53D277C13912BF7
:1019F000151411241FBECFEFD1E2DEBFCDBF00E032
:101A00000CBF13E0A0E0B2E0E8E4FFE600E00BBFAB
:101A100002C007900D92AE32B107D9F71BE0AEE2DB
:101A2000B3E001C01D92A033B107E1F719E1C0EFA7
:101A3000D9E100E006C022970109FE010BBF0E9418
:101A40001D31CC3ED10780E00807A9F70E947F280E
:101A50000C9492370C940000CF93DF93EC01262F67
:101A60004CAD6BAD04960E94AC1A2BAD992787FD47
:101A70009095820F911D8BAF81E090E0DF91CF9127
:101A8000089561E088E00E94882581E08093420308
:101A9000089581110C94410D60E088E00E94882532
:101AA000109242030895882339F080E795E00E9460
:101AB000AE2480931C02089560911C0270E080E7C0
:101AC00095E00C94D3238091630581113AC08091F5
:101AD000640590916505A0916605B09167058093B6
:101AE000F1069093F206A093F306B093F4064091AA
:101AF000100250911102609112027091130284E65B
:101B000093E00E9420194091680550916905609109
:101B10006A0570916B0584E693E00E941819609144
:101B20000E0270910F0284E693E00E94261980E76E
:101B300095E00E94AE2480931C0281E080936305AF
:101B4000089584E693E00E9468151092630580E092
:101B50000C94530DAF92BF92CF92DF92EF92FF920F
:101B60000F931F93CF93DF93CDB7DEB766970FB672
:101B7000F894DEBF0FBECDBF6B017C010E94322600
:101B8000AA24A394B12CAC0EBD1E850123E043E032
:101B9000C701B6010E94213162E070E08DEE95E050
:101BA0000E94991490E1E92E03E2DA2CFB2C16E353
:101BB0006BEF70E083EB95E00E94191B1092EA0531
:101BC000E092EB054091BD075091BE076091BF07C1
:101BD0007091C00722E0CE0141960E94C6276DE2B7
:101BE00072E0CE010B960E947127BE016F5E7F4F9F
:101BF000CE010B960E943628BC018FEA95E00E9428
:101C0000E72CCE010B960E940027CE0141960E9440
:101C100000271092EA050093EB056D2D7F2DCE0174
:101C200041960E94712765E372E0CE010B960E94F7
:101C30007127BE016F5E7F4FCE010B960E94362842
:101C4000BC018FEA95E00E94E72CCE010B960E9422
:101C50000027CE0141960E9400271092EA051093BA
:101C6000EB0563E473E0CE0141960E94A32768E38D
:101C700072E0CE010B960E947127BE016F5E7F4F0E
:101C8000CE010B960E943628BC018FEA95E00E9497
:101C9000E72CCE010B960E940027CE0141960E94B0
:101CA000002783EB95E00E94F31D811181CF66969A
:101CB0000FB6F894DEBF0FBECDBFDF91CF911F915D
:101CC0000F91FF90EF90DF90CF90BF90AF9008956D
:101CD00061E086E10E94882563EF72E08BEC98E07A
:101CE0000E944E2D20E030E040E251E4609169070F
:101CF00070916A0780916B0790916C070E949830F1
:101D0000AB01BC0122E030E08BEC98E00E94CC2ECD
:101D10004091F1065091F2066091F3067091F4063D
:101D200022E030E08BEC98E00E94CC2E8BEC98E027
:101D30000E94DF2860E086E10C94882561E086E15E
:101D40000E94882580916305882339F081E090E026
:101D50009093FB078093FA0704C01092FB07109240
:101D6000FA0765EF72E08BEC98E00E944E2D4091EF
:101D7000BD075091BE076091BF077091C00722E078
:101D800030E08BEC98E00E94CC2E67EF72E08BEC99
:101D900098E00E944E2D6091ED057091EE05882728
:101DA00077FD8095982F0E94E42FAB01BC0122E0C3
:101DB00030E08BEC98E00E94CC2E69EF72E08BEC67
:101DC00098E00E944E2D80E795E00E949024AB01A0
:101DD000BC0122E030E08BEC98E00E94CC2E6BEF4F
:101DE00072E08BEC98E00E944E2D80E795E00E9417
:101DF0009A24AB01BC0122E030E08BEC98E00E9419
:101E0000CC2E6DEF72E08BEC98E00E944E2D80E7B7
:101E100095E00E94A424AB01BC0122E030E08BECF1
:101E200098E00E94CC2E6FEF72E08BEC98E00E945D
:101E30004E2D6091FA077091FB074AE050E08BEC61
:101E400098E00E94092E61E073E08BEC98E00E941C
:101E50004E2D6091EF057091F005882777FD8095F4
:101E6000982F0E94E42FAB01BC0122E030E08BEC04
:101E700098E00E94CC2E8BEC98E00E94DF2860E076
:101E800086E10C94882560E488E00C9450258091CC
:101E90006305882339F0109263050E94630D81E089
:101EA0008093630510925F051092600510926105A2
:101EB0001092620508950F931F9360E48CE20E94D4
:101EC00050250E9432266093AB057093AC05809339
:101ED000AD059093AE0560911D0270911E0288279A
:101EE00077FD8095982F0E94E42F8B019C0140E0A4
:101EF00050E0BA0180E795E00E940F2361E070E0B6
:101F000080E795E01F910F910C94D3230E94B22497
:101F100081E00E94D62484E00E94D12460E489E01C
:101F20000E94502581E693E00E94251464E670E04B
:101F300080E090E00C946E26CF92DF92EF92FF92B9
:101F40000F931F9344E150E060E070E08EE293E075
:101F50000E948033C0903A03D0903B03E0903C0352
:101F6000F0903D0300913603109137032091380320
:101F7000309139034091320350913303609134031F
:101F80007091350380E795E00E949A2160914003AB
:101F90007091410380E795E00E94E92380912E0330
:101FA00090912F03A0913003B09131038093BD072E
:101FB0009093BE07A093BF07B093C0071F910F91E6
:101FC000FF90EF90DF90CF90089580E090E0A0EC3C
:101FD000B1E48093BD079093BE07A093BF07B09371
:101FE000C0071092F1061092F2061092F3061092BA
:101FF000F40680E090E0A0EBB1E480936907909351
:102000006A07A0936B07B0936C07089580E795E08B
:102010000E949024609332037093330380933403BF
:102020009093350380E795E00E949A2460933603ED
:1020300070933703809338039093390380E795E0DA
:102040000E94A42460933A0370933B0380933C0363
:1020500090933D038091A9059091AA059093410327
:10206000809340038091BD079091BE07A091BF0768
:10207000B091C00780932E0390932F03A093300359
:10208000B093310380911D0290911E0290933F0303
:1020900080933E0344E150E060E070E08EE293E024
:1020A0000C9490330F931F93CF93DF9300D000D005
:1020B000CDB7DEB762C061E087E10E9488256BE59D
:1020C00072E0CE0101960E9471278BEC98E00E948D
:1020D000BB28082F0AC0612FCE0101960E9422283A
:1020E0008BEC98E00E94BB28182F1A30A1F7023021
:1020F000DCF16BE572E0CE0101960E94AC2705C0D1
:10210000612FCE0101960E9422288BEC98E00E945C
:10211000BB28182F8A30A1F789819A810E945B33EE
:10212000AB01BC0184E00802F0011124EF50FA4F2A
:102130004083518362837383093651F0003719F06D
:10214000043679F40AC080E795E00E944B2209C06A
:1021500080E795E00E947B2204C080E795E00E9422
:10216000C5220E94061001C010E060E087E10E94D5
:102170008825CE0101960E9400278BEC98E00E94F2
:102180008C2805970CF097CF26960FB6F894DEBFF3
:102190000FBECDBFDF91CF911F910F9108950E9487
:1021A000E50F0E949C0F40E052EC61E070E08BEC88
:1021B00098E00E94112B0E945B0F0E94470F0E9423
:1021C000860F0E94430F60E486E10E94502560E480
:1021D00087E10C945025CF92DF92EF92FF926B0132
:1021E0007C0120910A0230910B0240910C02509127
:1021F0000D020E949430181634F4FF90EF90DF9097
:10220000CF900C94410D209106023091070240912D
:10221000080250910902C701B6010E94452F87FDAF
:10222000ECCF80914203882339F080E0FF90EF905B
:10223000DF90CF900C94490DFF90EF90DF90CF90FE
:102240000895CF92DF92EF92FF920F931F93C09069
:10225000F106D090F206E090F306F090F4060E94AA
:1022600032260091AB051091AC052091AD0530915F
:10227000AE05601B710B820B930B0E94E22F9B013A
:10228000AC01C701B6010E9494301816C4F420E0D6
:1022900030E04AE754E46091F1067091F2068091D3
:1022A000F3069091F4060E949430181644F463E00B
:1022B00073E083E493E00E944C28811129C0C09010
:1022C000F106D090F206E090F306F090F4060E943A
:1022D00032260091AB051091AC052091AD053091EF
:1022E000AE05601B710B820B930B0E94E22F9B01CA
:1022F000AC01C701B6010E94452F87FF4CC060EFBB
:1023000072E083E493E00E944C28811120C043C016
:1023100060EF72E083E493E00E94AC2761E08CE21E
:102320000E94882561E086E10E94882567E073E0CD
:102330008BEC98E00E944E2D63E473E08BEC98E008
:102340000E943A2D60E086E10E948825B8CF63E0C4
:1023500073E083E493E00E94AC2760E08CE20E948B
:10236000882561E086E10E94882567E073E08BECB8
:1023700098E00E944E2D63E473E08BEC98E00E949D
:102380003A2D60E086E11F910F91FF90EF90DF9072
:10239000CF900C9488251F910F91FF90EF90DF90C4
:1023A000CF900895CF92DF92EF92FF920F931F93F9
:1023B000CF93DF938091EC05811107C081E080937A
:1023C000EC0583EB95E00E94B11D83EB95E00E9444
:1023D000EE1D0E94322660935D0370935E0380932E
:1023E0005F039093600381EF97E090936303809382
:1023F0006203BC0181E693E00E9438148091F307E8
:10240000811134C1C0915B03D0915C032196D093BC
:102410005C03C0935B036091F1077091F20780E069
:1024200090E00E94E22F60934F03709350038093DB
:1024300051039093520320E030E040E05DE30E94BE
:10244000983025E733E940E853E40E94E02EFB0191
:10245000462F5F2F682F792F4093530350935403D7
:10246000609355037093560320915703309158039E
:102470004091590350915A03BF010E94E12E7B0104
:102480008C01862F9F2DA02FB12F809357039093FF
:102490005803A0935903B0935A03BE01882777FDD0
:1024A0008095982F0E94E42F9B01AC016E2D7F2D0B
:1024B000802F912F0E94492F9B01462F532F682F69
:1024C000792F40934B0350934C0360934D037093CB
:1024D0004E03622F732F0E94EB1080914B0390915B
:1024E0004C03A0914D03B0914E03809369079093E4
:1024F0006A07A0936B07B0936C07809163058823EC
:1025000009F44BC084E693E00E94DD15811110921E
:10251000630580916305811144C084E693E00E94C5
:10252000B718609318027093190280931A0290935F
:102530001B0284E693E00E94CF186093140270930C
:102540001502809316029093170284E693E00E948E
:10255000F4186B017C0160936C0570936D0580939A
:102560006E0590936F050091140210911502209151
:102570001602309117024091180250911902609191
:102580001A0270911B0280E795E00E949A2180E078
:102590000E94530D0E94061004C080E795E00E943F
:1025A0005B200E9432260091AB051091AC05209172
:1025B000AD053091AE05C0901D02D0901E02EE24F4
:1025C000D7FCE094FE2C601B710B820B930BC6169C
:1025D000D706E806F90660F40C0D1D1D2E1D3F1DE3
:1025E0000093AB051093AC052093AD053093AE0579
:1025F0000E94211160915B0370915C0380914903FB
:1026000090914A03861797078CF5882777FD809568
:10261000982F0E94E42F9B01AC01609157037091A9
:1026200058038091590390915A030E94492F9B01AE
:10263000462F532F682F792F4093570350935803F9
:102640006093590370935A0310925C0310925B03DA
:10265000622F732F0E94AA0D0E94680E10925703DA
:10266000109258031092590310925A030E9452106C
:102670000E94322600915F0510916005209161054E
:10268000309162050617170728073907B0F40E9432
:102690009E0E80915F0590916005A0916105B091BB
:1026A00062058C509E4FAF4FBF4F80935F05909354
:1026B0006005A0936105B09362050E94322620E276
:1026C0003EE440E050E00E94FB30672B682B692B12
:1026D00051F4DF91CF911F910F91FF90EF90DF9018
:1026E000CF900C940610DF91CF911F910F91FF9026
:1026F000EF90DF90CF900895AF92BF92CF92DF928C
:10270000EF92FF920F931F931092B2051092B105B2
:1027100085E193E09093B0058093AF05CC24CA94F3
:10272000EE24EA940CE02BE04DE06FE172E08FEADA
:1027300095E00E9407208DE093E09093B005809390
:10274000AF058091AA058F938091A9058F931F9261
:102750001F921F921F9233ECA32E35EEB32E39E455
:10276000C32E34E4D32E13E4E12E11EDF12E07E94C
:1027700016E42DEB37E041EF56E069E677E080E7BD
:1027800095E00E94252480911D0290911E020F90D9
:102790000F900F900F900F900F9097FD0196BC0136
:1027A00075956795882777FD8095982F0E94E42F6F
:1027B000609368057093690580936A0590936B0533
:1027C0006093640570936505809366059093670533
:1027D00041EF56E069E677E084E693E00E9446190F
:1027E00069E081E693E00E941F140E943226609304
:1027F0005D0370935E0380935F0390936003809109
:102800001D0290911E0290934A038093490363E056
:1028100073E083E493E01F910F91FF90EF90DF90BE
:10282000CF90BF90AF900C94712783E493E00C9409
:1028300000278EBD0DB407FEFDCF8EB50895FC01B7
:10284000862F608361E00C948825CF93DF93EC01A1
:1028500060E088810E94882580E80E94191482EC3B
:102860000E94191461E08881DF91CF910C94882532
:10287000CF92DF92EF92FF920F931F93CF93DF934C
:102880008C01EB0160E0FC0180810E94882580E0E2
:102890000E94191480E00E9419148B8380E00E942A
:1028A0001914F82EE12C80E00E9419146701C82A3F
:1028B000C601969587959983888380E00E941914B4
:1028C000F82EE12C80E00E9419149701282BC901F1
:1028D000969587959D838C8380E00E941914F82E2D
:1028E000E12C80E00E941914E82AFF82EE8280E049
:1028F0000E9419148A8361E0F80180810E94882572
:10290000CD2819F08A81882359F0C801DF91CF9131
:102910001F910F91FF90EF90DF90CF900C942514B2
:10292000DF91CF911F910F91FF90EF90DF90CF90AB
:1029300008953F924F925F926F927F928F929F92F3
:10294000AF92BF92CF92DF92EF92FF920F931F93BD
:10295000CF93DF9300D01F921F92CDB7DEB78C01CB
:10296000562E19821A821B821C821D8261E0852DDF
:102970000E94502560E0852D0E94882562E170E06C
:1029800080E090E00E946E2661E0852D0E948825FF
:1029900088E290E00E94942660E0852D0E945025F8
:1029A00071E1E72E77E2F72E07C081E0E81AF1081F
:1029B00019F42EEF3FEF74C0852D0E94BF25892B9F
:1029C000A1F361E1E62E67E2F62E04C0E1E0EE1A23
:1029D000F10879F3852D0E94BF250197B9F338E2FC
:1029E000A32EB12C312C47E0442E88248394912CC3
:1029F00005C0F1E0EF1AF10829F4DBCF21E1E22E66
:102A000027E2F22E852D0E94BF25892B91F30E948B
:102A100044266B017C0191E1692E97E2792E05C075
:102A200081E0681A710809F4C4CF852D0E94BF2582
:102A30000197B1F30E9444266C197D098E099F0904
:102A4000693271058105910578F0E1E0F0E0EC0F65
:102A5000FD1FE30DF11DC401042C01C0880F0A9471
:102A6000EAF79081982B9083411004C0339487E05B
:102A7000482E01C04A94E1E0AE1AB10809F0BECF79
:102A80008981F801808311829B8192831382890F4F
:102A90009D81981719F02FEF3FEF02C020E030E042
:102AA000C9010F900F900F900F900F90DF91CF9171
:102AB0001F910F91FF90EF90DF90CF90BF90AF905C
:102AC0009F908F907F906F905F904F903F90089570
:102AD000FC01108A0895CF92DF92EF92FF920F933C
:102AE0001F93CF93DF93EC01FC01E151FE4F8081F6
:102AF0009181A281B381EC81FD8180839183A28346
:102B0000B3838E010D501E4FFE01E551FE4F6081D3
:102B10007181828193819B01AC010E94E12E20E0B2
:102B200030E040E850E40E9498306B017C01FE01E7
:102B3000ED51FE4FDE01A951BE4F2D913D914D91BA
:102B40005C9160817181828193810E94E02E20EDF1
:102B50003FE049E450E40E9498309B01AC01C7017A
:102B6000B6010E94492FF8016083718382839383A9
:102B70008E0109501E4F69897A898B899C89CD887D
:102B8000DE88EF88F88C6C197D098E099F090E94F8
:102B9000E22F20E030E04AE754E40E94492FF80198
:102BA0006083718382839383DF91CF911F910F9113
:102BB000FF90EF90DF90CF9008953F924F925F92F9
:102BC0006F927F928F929F92AF92BF92CF92DF923D
:102BD000EF92FF920F931F93CF93DF9300D000D01B
:102BE000CDB7DEB79E838D83FC01EE51FE4F108280
:102BF000FC01E152FE4F808191810A9774F0AD8112
:102C0000BE8150968C915097882339F050961C9233
:102C10005097CD010E946B1587C20E9432266983AE
:102C20007A838B839C83ED81FE81818D928DA38D30
:102C3000B48D49815A816B817C81481B590B6A0B89
:102C40007B0B858D968DAA2797FDA095BA2F4817E7
:102C500059076A077B0708F46FC289819A81AB81A3
:102C6000BC81ED81FE81818F928FA38FB48FDF01B4
:102C70000280F381E02DC080D180E280F380FD01ED
:102C8000EE51FE4F81E0808350969C9150978D01CC
:102C90000D511E4F911142C092961C921E92919717
:102CA000FD01E152FE4F11821082FD01EF51FE4FF6
:102CB0001082F801C082D182E282F382FD01E951E3
:102CC000FE4FC082D182E282F3821696CD92DD92CF
:102CD000ED92FC92199750968C93509714960D9103
:102CE0001C911597F8016081718182819381FD01AA
:102CF000E151FE4F6083718382839383FD01E5512F
:102D0000FE4F20813181428153810E94E12ED80102
:102D10006D937D938D939C93139728C0F801208128
:102D2000318142815381C701B6010E949430181647
:102D300034F4D801CD92DD92ED92FC921397AD80E0
:102D4000BE80B9E1AB1ABEEFBB0AF501208131812B
:102D500042815381C701B6010E94452F87FF06C0FB
:102D6000D501CD92DD92ED92FC921397ED81FE811B
:102D700086809780A084B18442845384648475845F
:102D8000A3019201C501B4010E94E12E9B01AC0197
:102D9000C701B6010E9494301816B4F4AD81BE810B
:102DA00014960D911C911597FD01E151FE4FA5510F
:102DB000BE4F2D913D914D915C91608171818281D9
:102DC00093810E94E02E23C0A3019201C501B401AA
:102DD0000E94E02E9B01AC01C701B6010E94452F65
:102DE00087FF1AC0AD81BE8114960D911C91159775
:102DF000FD01E151FE4FA551BE4F2D913D914D91E9
:102E00005C9160817181828193810E94E12EF80141
:102E1000608371838283938381E0AD81BE818C93D3
:102E200011968C9311975F968D909C90909784014A
:102E3000015011095401AA0CBB1CAA0CBB1CB3E223
:102E4000AB0EB11CED81FE81AE0EBF1E36C0D501AA
:102E50007E906E905E904E905D01ED81FE8180814E
:102E6000882371F033243394A3019201C701B60182
:102E70000E94943018160CF0312CAD81BE813C922A
:102E8000ED81FE818181882369F0A3019201C70150
:102E9000B6010E94452F881F8827881FAD81BE81FB
:102EA00011968C93F50180819181A281B3818483F5
:102EB0009583A683B7830150110917FFC8CFAD8151
:102EC000BE819396CD92DD92ED92FC929697B9E0F9
:102ED0008B1691040CF430C1ED81FE818081882332
:102EE000D9F181A192A1892B21F481E090E092A3F4
:102EF00081A3AD81BE8191968D919C91929701960F
:102F0000A1F481E090E0ED81FE8192A381A3EF51D5
:102F1000FE4F81E08083ED81FE8181899289A389C2
:102F2000B489858B968BA78BB08F89819A81AB8171
:102F3000BC81ED81FE81818B928BA38BB48BE1529E
:102F4000FE4F80819181880F991F880F991F2D81D5
:102F50003E81820F931F3CC0AD81BE8111968C9142
:102F600011978823E1F1FD0181A192A1892B21F420
:102F70008FEF9FEF92A381A3AD81BE8191968D913A
:102F80009C919297019799F48FEF9FEF92969C9363
:102F90008E939197FD01E152FE4F808191810196C0
:102FA00091838083FD01EF51FE4F81E08083ED81AD
:102FB000FE81E152FE4F808191818A3091057CF43F
:102FC000880F991F880F991FED81FE818E0F9F1F1B
:102FD000FC01E954FE4FC082D182E282F382ED818E
:102FE000FE81EF51FE4F8081882309F4A0C0ED815E
:102FF000FE81E152FE4F00811181033011050CF476
:1030000096C0C8010297880F991F880F991F2D81BC
:103010003E81820F931FFC01E954FE4F4080518096
:1030200062807380C8010197880F991F880F991FCC
:10303000820F931FFC01E954FE4FA30192016081AE
:103040007181828193810E94E02E862E972EA82E78
:10305000B92E20E030E0A9010E949430181624F027
:10306000B7FAB094B7F8B09403501109000F111FCC
:10307000000F111F8D819E81080F191FF801E9545F
:10308000FE4F2081318142815381C301B2010E94F0
:10309000E02EB62FA72F462F572F682F792F2A0102
:1030A0003B0120E030E0A9016B2F7A2F0E94943081
:1030B000181624F077FA709477F87094A3019201AF
:1030C000C501B4010E94E12E20E030E040E05FE362
:1030D0000E9498306B017C01ED81FE81ED51FE4F25
:1030E000AD81BE81A951BE4F2D913D914D915C9115
:1030F00060817181828193810E94E02E2DEC3CECF5
:103100004CE45DE30E9498309B01AC01C701B6011D
:103110000E94452F87FF0BC08D819E810E946B15F9
:10312000AD81BE8150961C9221E030E007C0ED8158
:10313000FE81EF51FE4F108220E030E0C90126965B
:103140000FB6F894DEBF0FBECDBFDF91CF911F91B8
:103150000F91FF90EF90DF90CF90BF90AF909F9036
:103160008F907F906F905F904F903F900895FC01FB
:1031700026853785ED50FE4F2130310529F42AE9A7
:1031800039E949E15FE304C02DEC3CEC4CEC5EE333
:1031900060817181828193810E9498300895CF93DC
:1031A000DF93FC0126853785ED50FE4FEC01C950B9
:1031B000DE4F2130310529F42AE939E949E95FE395
:1031C00004C02FE832EC45EF5EE3608171818281BB
:1031D00093810E949830288139814A815B810E94C5
:1031E000492FDF91CF910895CF93DF93EC018E8526
:1031F0009F850197B1F4FE01ED50FE4F2AE939E9B0
:1032000049E95DE360817181828193810E949830F8
:10321000C950DE4F288139814A815B810E949830F4
:1032200004C060E070E080E090E0DF91CF9108950D
:1032300085519E4FFC0140835183628373830895BF
:10324000FC0142875387648775870895FC01161631
:10325000170624F46931710564F402C061E070E07E
:10326000660F771F660F771F70A3678F8AEF90E056
:103270000AC084E690E090A3878F2AE0269FC001D1
:10328000279F900D1124968F858F0895CF93DF93FC
:10329000EC017B836A835D834C831F861E8680E0FE
:1032A00090E0A0E0BFE38A879B87AC87BD87188A40
:1032B000FE01E551FE4F40E050E060EF71E44083D5
:1032C0005183628373836AE070E0CE010E94261905
:1032D0000E943226698F7A8F8B8F9C8FDF91CF91DE
:1032E0000895FC01E60FF11D8491382F20E03196FE
:1032F000E4912E0F311DC9010895FC0184910895B8
:103300000E947D19833030F4E82FF0E0E75EFC4F37
:103310008081089583E0089580E0089566E00C942C
:10332000711968E00C9471190A96FC018491089552
:103330000B96FC0184910895AF92BF92CF92DF92D9
:10334000EF92FF920F931F93CF93DF93EC01F62E32
:103350000C811D81C8010E947D19D82EC8010E94D0
:103360008019A82E21E0D21619F0CC24CA9402C0EC
:103370002FE0C22EC8010E949419E82EC8010E94B5
:103380009819B82EC8010E949119E0E6EF1540F493
:10339000009731F09801280F391F91E6E92E10C0EF
:1033A000C8010E948E19F0E49801FF1538F40097C7
:1033B00029F0280F391F81E4E82E02C02F5E3F4F0D
:1033C000BF1408F449C0BE1408F446C04A2D50E0AA
:1033D000F90184918F3F19F42F5F3F4F39C0EF10EF
:1033E0002FC0DD2019F0F2E0DF1213C0F901849143
:1033F0008B8B3196E491EC8BF9013396E491E88B59
:10340000F9013496E491E98BF9013596E491EA8B60
:103410002AC0982F9F7092509A8B82958F70898BBB
:10342000F9013196E4918E2F8F708C8BE295EF70BD
:10343000EB8BF9013296E491E295EF70E88B13C0C3
:10344000F9013296E491EC212E0F311D240F351F26
:10345000EB1411F0E394BCCF188A1B8A1C8A198ADA
:103460001A8A20E030E0C901DF91CF911F910F91BE
:10347000FF90EF90DF90CF90BF90AF9008954F9264
:103480005F927F928F929F92AF92BF92CF92DF9284
:10349000EF92FF920F931F93CF93DF931F92CDB7BD
:1034A000DEB72C01162F742E622F0E949C196C011E
:1034B000009709F43FC0F201848195810E94801930
:1034C000F82EF201838804899188910E8289781AF6
:1034D000172D101B282D412F692DC2010E946B1E34
:1034E000811101C024C0CF0CD11CF7E08F0E86944F
:1034F00086948694A82CB12C15C0F701049120E085
:10350000412F632FC20139830E94021EFFEFEF1A81
:10351000FF0A3981385F8E2D8C19881570F3CA0C1B
:10352000DB1C1F5F171519F0392D7601F4CFF2015E
:10353000808901C080E00F90DF91CF911F910F91A2
:10354000FF90EF90DF90CF90BF90AF909F908F90C3
:103550007F905F904F9008950F931F93CF93DF93C9
:1035600000D0CDB7DEB78C01DC015596ED91FC9112
:1035700056972B834A83698319954A81480F2B817B
:103580006981C8010F900F900F90DF91CF911F912B
:103590000F910C943F1ADC0114968D919C91159714
:1035A000009709F43FC057962C915797FC012111C1
:1035B00008C03596E4915896EC935897FC013C96D8
:1035C00011C0213041F43F96E4915896EC935897FE
:1035D000FC01709607C03D96E4915896EC9358977D
:1035E000FC013E96849159968C93599758968C91EC
:1035F0005897992787FD909559962C915997821B3A
:10360000910927FD93955A962C915A97203441F0B1
:10361000829FC001112456E0969587955A95E1F74F
:103620005B968C9308952CE839E1FC01368B258B51
:103630000895CF93DF93EC018C819D8186179707C6
:1036400049F07D836C83CE010E94CB1A8CE899E10E
:103650009E8B8D8BDF91CF9108959F92AF92BF92F9
:10366000CF92DF92EF92FF920F931F93CF93DF934E
:103670008C01EB01A42E69018AE0481721F0E5E1F5
:103680004E1354C00BC043E0C8010E945D1F44EEBE
:1036900050E0BE01C8010E949C1F48C0EA80FB8028
:1036A00040E0C8010E94831F41E0BE01C8010E94A2
:1036B000661FF701B280E680F78098E0992E9B0C98
:1036C00040E0BE01C8010E94831F4EE3BE01C80155
:1036D0000E948C1FFFE14B2DFB1538F04068BE01A6
:1036E000C8010E948C1F40E807C040524068BE01DC
:1036F000C8010E948C1F48E8BE01C8010E948C1FAF
:1037000041E0BE01C8010E94831F970140E1BE0154
:10371000C8010E94951F80E1E80EF11CB394B91016
:10372000CFCF40E0BE01C8010E94661F96014A2D1E
:10373000BE01C801DF91CF911F910F91FF90EF90D3
:10374000DF90CF90BF90AF909F900C94131F90E0AC
:10375000FC01ED5DF74E249130E0220F331F2D5711
:10376000374EF9012591349120937C0830937D08E0
:1037700070E0FB01ED5DF74E249130E0220F331F26
:103780002D57374EF9012591349120937E083093BF
:103790007F08FC01E352F84E849180938008FB017E
:1037A000E352F84E649160938108609560938208BB
:1037B00080958093830808952091800890918308D4
:1037C0005091810860918208A0917C08B0917D0899
:1037D000E0917E08F0917F083FB73093290BF89471
:1037E0003C91322B4C91492398E087FF02C03C93D7
:1037F00001C04C93880F2081262320832081252B14
:103800002083915091F78091290B8FBF0895CF931A
:10381000C62F811102C088EF03C0813019F48AEFEE
:103820000E94DC1B8C2F807F0E94DC1B8C2F8295DA
:10383000807F0E94DC1B0E941B1E0E941B1E0E9498
:103840001B1ECF910C941B1EFF920F931F93CF93BF
:10385000DF93EC01F42E8901643039F140F46230D9
:1038600009F46FC040F5613009F06CC007C06630E4
:10387000C1F190F1673009F065C060C00E94481E38
:1038800040E062E0CE010E943E1E41E064E0CE01D5
:103890000E943E1E40E065E0CE010E943E1E6FA1E8
:1038A00088A50E94A71B1EA24DC08BA18F3F09F4C3
:1038B00049C060E004C0411106C040E062E0CE01B2
:1038C0000E943E1E3FC041E062E00E943E1E6FA18A
:1038D00088A50E94A71B36C0642F8EA10E94071CDA
:1038E00031C08EA1811102C088EF03C0813099F4EC
:1038F0008AEF0E94DC1B0FC0F8018081807F0E944C
:10390000DC1BF80181918F018295807F0E94DC1B76
:10391000FA940E941B1EF110EFCF0E941B1E0E9402
:103920001B1E0E941B1E0E941B1E0CC0F8016491EE
:103930008EA10E94071C0F5F1F4FFA94F110F6CF63
:1039400001C04EA381E0DF91CF911F910F91FF90B5
:1039500008951F93CF93DF93EC011D821C821F8279
:103960001E82198681E0888782E28A871F861E86EA
:1039700080E090E02FEFFE01E80FF91F23A30196EE
:103980008E309105C1F711E018A3CE010E94131BE0
:103990001F8B188E198E80E48A8F1B8E80E29EE129
:1039A0009AAB89ABDF91CF911F910895DB01ED9127
:1039B000FC911994EF92FF921F93CF93DF931F9284
:1039C0001F92CDB7DEB77C01DC01D196ED91FC9161
:1039D000D29782E069837A83199520E030E04AE04B
:1039E00069817A81C7010E94D61C182FD701D19610
:1039F000ED91FC91D29783E01995D701D196ED9185
:103A0000FC91D29780E01995812F0F900F90DF9154
:103A1000CF911F91FF90EF9008950F931F93CF9335
:103A2000DF93EC018B01E9A9FAA982E01995E9A9D4
:103A3000FAA981E0199520E030E044E1B801CE0117
:103A40000E94D61C9E012D5C3F4F47E1B801CE017C
:103A50000E94D61CE9A9FAA980E0DF91CF911F91BD
:103A60000F911994FF920F931F93CF93DF93EC0163
:103A70008B01E9A9FAA982E01995E9A9FAA981E0DF
:103A8000199520E030E045E1B801CE010E94D61C36
:103A9000F82E882341F09E012D5C3F4F47E1B8018D
:103AA000CE010E94D61CE9A9FAA980E019958F2DB4
:103AB000DF91CF911F910F91FF900895EF920F9397
:103AC000FC01448F258F078FE68E9C01245E3F4FBB
:103AD0004BE30F91EF900C94D61CCF93DF931F9282
:103AE000CDB7DEB79E012F5F3F4F46E40E94D61C44
:103AF00089810F90DF91CF910895CF93DF931F922B
:103B0000CDB7DEB79E012F5F3F4F47E40E94D61C22
:103B100089810F90DF91CF91089520E030E048E453
:103B20000C94D61CCF93DF93EC016A817B810E94B9
:103B30006D1D88836A817B81CE010E947D1D8983F2
:103B40006A817B81CE010E948D1D8B879E012D5C39
:103B50003F4F6A817B8147E1CE01DF91CF910C9489
:103B6000D61CCF93DF93EC016A817B810E94DA1C23
:103B7000882329F0CE010E94921D81E001C080E0DF
:103B8000DF91CF9108958F929F92AF92BF92CF9283
:103B9000EF920F93CF93DF931F921F92CDB7DEB7B3
:103BA0004C015B012A8349830E94A91CF401B38262
:103BB000A282498147A32A8120A705A3E4A2C3A228
:103BC000C4010F900F90DF91CF910F91EF90CF90A4
:103BD000BF90AF909F908F900C94B11DFC016281BB
:103BE00073810C940D1DCF93DF93EC01EE85FF855F
:103BF000309709F019956A817B81CE01DF91CF91D1
:103C00000C94321DEF920F93362FFC016281738169
:103C1000E02E022F242F432F0E945E1D0F91EF9064
:103C200008952EE93FE004C0F9013197F1F70197BB
:103C30000097D1F7089588E290E00197F1F7089591
:103C40000895FC011282808181508383148208953B
:103C5000FC0120818281820F82839181891760F427
:103C600084818F5F84838381820F891710F0892F6D
:103C70008150838381E0089580E00895860F911D2F
:103C8000FC0183A18F3F19F0642F0C9488250895BF
:103C9000EF92FF920F931F93CF93DF937C01C0E0CD
:103CA000D0E087010C0F1D1FF80183A18F3F41F069
:103CB00061E00E94502561E0F80183A10E948825FF
:103CC0002196CD30D10569F7DF91CF911F910F91EA
:103CD000FF90EF9008950F93FC01842F8150800F87
:103CE00094A936A9341718F0891798F402C08917D7
:103CF00070F0841770F00BC0981738F402C0981752
:103D000030F081E0961768F002C081E00AC080E0E0
:103D100008C0962F9150920F83A925A9261760F706
:103D2000EECF0F910895DC011696ED91FC91179757
:103D300015968C91159786958695869512969C91E9
:103D4000491B489F402D1124E40FF11D362F377079
:103D500080E890E002C0959587953A95E2F76695E0
:103D600066956695E60FF11D9081222311F0892B4F
:103D700002C08095892380830895FB014181DC0185
:103D800012962C911297421768F013962C91139764
:103D9000241740F0608115962C91621718F4248145
:103DA0000C94931E0895CF92DF92FF920F931F936E
:103DB000CF93DF931F921F92CDB7DEB78C016B01BB
:103DC000FB01F2808381813039F070F0823039F06C
:103DD000833041F020E001C021E030E007C020E066
:103DE0003FEF04C02FEFF9CF20E031E0F7FE08C02D
:103DF000B601C80129833A830E94BD1E3A812981F8
:103E0000F6018081830F80838181820F8183FF0C83
:103E100069F70F900F90DF91CF911F910F91FF9055
:103E2000DF90CF9008950F931F93CF93DF93890175
:103E3000FB01C281D3814233C9F038F4453111F11D
:103E4000473149F1443189F516C0463449F14734C8
:103E500049F14B3351F5B901CE010E944A20882324
:103E600021F1B801CE010E94D31E1FC0B901CE01BD
:103E70000E94BD1E1AC0CE010E941520CE010E94D4
:103E8000211E13C0CE010E94281E882381F0CE017E
:103E90000E9415200AC0B901CE010E943A2005C037
:103EA0008D8101C08981F801808381E001C080E0BB
:103EB000DF91CF911F910F910895DB011496ED9141
:103EC000FC91159720E030E061E01994DB01149635
:103ED000ED91FC91159720E030E063E01994DB014F
:103EE0001496ED91FC91159720E030E040E064E0FD
:103EF0001994DB011496ED91FC91159720E030E0C8
:103F000041E064E01994DB011496ED91FC91159762
:103F100020E030E062E01994DB011496ED91FC9111
:103F2000159720E030E065E01994DB011496ED91DF
:103F3000FC91159766E01994AF92BF92DF92EF92D1
:103F4000FF920F931F93CF93DF931F92CDB7DEB7EE
:103F50005C018B017A0180E0F701449181110BC073
:103F60004F3F09F441C0B801C5010E948C1F88234E
:103F700009F43FC031C04F3F09F4F5CF4E3FD9F1AE
:103F8000403F50F5403E30F04F70B801C5010E94EF
:103F9000831F22C0403D30F04F70B801C5010E9420
:103FA000661F1AC0403CD0F0B801C50149830E9489
:103FB0006F1F4981D42ED29480EFD822D394D3940A
:103FC0008D2D90E00E94111EB801C5010E94791F3D
:103FD0008D2D90E00E94111E80E007C04E3BE0F75F
:103FE00047FDFACF842FF5CF81E0FFEFEF1AFF0AEC
:103FF000B3CF80E001C081E00F90DF91CF911F919E
:104000000F91FF90EF90DF90BF90AF900895CF9207
:10401000EF920F93FC0113AE14AE15AE04960E94FE
:10402000C31D0F91EF90CF900895DC011696ED918E
:10403000FC91179715968C919F01280F311DC9018E
:104040001192E817F907E1F70895FC0181E09381E7
:10405000961708F480E031E09281491708F430E0C7
:1040600021E0461708F020E0982F922B932382231B
:10407000892B0895DC01FB01108212968C91129716
:10408000818315968C9115978150828313968C911C
:1040900083830895FB0161812381213019F023304E
:1040A00039F403C0462F485F04C0462F685001C052
:1040B000462F0C9425202F923F924F925F926F9241
:1040C0007F928F929F92AF92BF92CF92DF92EF92A8
:1040D000FF920F931F93CF93DF93CDB7DEB72A974D
:1040E0000FB6F894DEBF0FBECDBF9A878987DC017B
:1040F000D8968C91811102C080E003C10E943226C3
:1041000069837A838B839C83E985FA8580A191A159
:10411000A2A1B3A149815A816B817C81481B590BB3
:104120006A0B7B0B84A595A5A6A5B7A548175907CB
:104130006A077B0708F3028CF38DE02DC080D180E5
:10414000E280F380A985BA855E96ED91FC915F9738
:10415000A701960160817181828193810E94E02E86
:104160006D837E838F839887E985FA8520893189DD
:10417000428953890E949830A985BA8594962D91D9
:104180003D914D915C9197970E94E12E1B012C016E
:10419000862F932DA42DB52DE985FA8584A395A3AB
:1041A000A6A3B7A364A875A806A917A9262D372D1D
:1041B000402F512F622D732D842D952D0E94943008
:1041C00018165CF4862D972DA02FB12FE985FA855E
:1041D00084A395A3A6A3B7A318C0A985BA85D09632
:1041E0008D909D90AD90BC90D397A5019401622DC8
:1041F000732D842D952D0E94452F87FF06C0E985DC
:10420000FA8584A295A2A6A2B7A2A985BA851C9612
:104210002D913D914D915C911F97BD81AE81BF80E5
:10422000A8846B2F7A2F8B2D9A2D0E949830E985C8
:10423000FA8524A135A146A157A10E94E12E4B0188
:104240005C01A985BA8598962D913D914D915C911F
:104250009B97C701B6010E94E02EE985FA85248963
:104260003589468957890E9498309B01AC01C50168
:10427000B4010E94E02E4B015C01262D372D402F0A
:10428000512F682D792D8A2D9B2D0E949430181660
:10429000DCF0A985BA85D0966C90D097D1967C90A9
:1042A000D197D2960C91D297D3961C91262D372D6B
:1042B000402F512F682D792D8A2D9B2D0E94452F3F
:1042C00087FD02C034018501A985BA855C96ED9110
:1042D000FC915D97862D972DA02FB12F8083918320
:1042E000A283B383E985FA85C0A6D1A6E2A6F3A688
:1042F00089819A81AB81BC8180A391A3A2A3B3A33E
:1043000081E02A960FB6F894DEBF0FBECDBFDF91D5
:10431000CF911F910F91FF90EF90DF90CF90BF90C2
:10432000AF909F908F907F906F905F904F903F9055
:104330002F9008952F923F924F925F926F927F92AB
:104340008F929F92AF92BF92CF92DF92EF92FF92A5
:104350000F931F93CF93DF93EC014A015B01280178
:10436000390120E030E0A901C501B4010E94452FC8
:1043700087FD7EC020E030E0A901C301B2010E94A8
:10438000452F87FD75C020E030E0A901C701B601C7
:104390000E94452F87FD6CC088829982AA82BB82C9
:1043A0004C825D826E827F82C886D986EA86FB86D1
:1043B0006CA57DA58EA59FA50E94E22F20E030E090
:1043C0004AE754E40E94492F1B018C018C869D868C
:1043D000AE86BF86762F272F332D402F512FC30156
:1043E000B2010E9498302B013C01862F952DA62DFD
:1043F000B72D888B998BAA8BBB8B222D332D402F09
:10440000512FC701B6010E94492F7B018C01862FD5
:104410009F2DA02FB12F8C8B9D8BAE8BBF8B888D4A
:10442000998D019729F5A501940160E070E0CB0119
:104430000E94E02E6C877D878E879F87242D352DE7
:10444000462D572D60E070E0CB010E94E02E688B76
:10445000798B8A8B9B8B2E2D3F2D402F512F60E027
:1044600070E0CB010E94E02E6C8B7D8B8E8B9F8B3E
:10447000DF91CF911F910F91FF90EF90DF90CF9040
:10448000BF90AF909F908F907F906F905F904F9074
:104490003F902F900895CF92DF92EF92FF92CF93AB
:1044A000DF93EC016A017B0120E030E0A901C70144
:1044B000B6010E94452F87FD17C0C882D982EA82C3
:1044C000FB82CC86DD86EE86FF86888D998D0197EE
:1044D00059F4A701960160E070E0CB010E94E02E44
:1044E0006C877D878E879F87DF91CF91FF90EF90BC
:1044F000DF90CF900895CF92DF92EF92FF92CF930B
:10450000DF93EC016A017B0120E030E0A901C701E3
:10451000B6010E94452F87FD31C0CC82DD82EE823C
:10452000FF826CA57DA58EA59FA50E94E22F20E0AD
:1045300030E04AE754E40E94492F9B01AC01C701D7
:10454000B6010E949830FB01462F5F2F682F792F0C
:10455000488B598B6A8B7B8B288D398D21303105A7
:1045600069F42E2F3F2F482F592F60E070E0CB01C8
:104570000E94E02E688B798B8A8B9B8BDF91CF9189
:10458000FF90EF90DF90CF900895CF92DF92EF925F
:10459000FF92CF93DF93EC016A017B0120E030E0D2
:1045A000A901C701B6010E94452F87FD31C0C88609
:1045B000D986EA86FB866CA57DA58EA59FA50E945F
:1045C000E22F20E030E04AE754E40E94492F9B01AB
:1045D000AC01C701B6010E949830FB01462F5F2F46
:1045E000682F792F4C8B5D8B6E8B7F8B288D398D4F
:1045F0002130310569F42E2F3F2F482F592F60E0CD
:1046000070E0CB010E94E02E6C8B7D8B8E8B9F8B9C
:10461000DF91CF91FF90EF90DF90CF9008954F9270
:104620005F926F927F928F929F92AF92BF92CF9242
:10463000DF92EF92FF920F931F93CF93DF93EC01E2
:104640006A017B0128013901A9019801C701B6015E
:104650000E94943087FF4FC0C8AAD9AAEAAAFBAA31
:104660004CAA5DAA6EAA7FAA88AD882309F443C02C
:104670000C8D1D8DF80180809180A280B380A301F4
:104680009201C501B4010E949430181634F4F80167
:1046900040825182628273820DC0A7019601C501DA
:1046A000B4010E94452F87FF05C0F801C082D18266
:1046B000E282F3824CA05DA06EA07FA0CCA8DDA812
:1046C000EEA8FFA8A7019601C301B2010E94943091
:1046D00018160CF40CC0C8A8D9A8EAA8FBA8A70112
:1046E0009601C301B2010E94452F87FF04C0CCA2EE
:1046F000DDA2EEA2FFA2DF91CF911F910F91FF905B
:10470000EF90DF90CF90BF90AF909F908F907F9071
:104710006F905F904F9008958F929F92AF92BF924B
:10472000CF92DF92EF92FF92CF93DF93EC01EC8D6B
:10473000FD8DC080D180E280F380CCA2DDA2EEA20C
:10474000FFA2EA8DFB8D80819181A281B38188A730
:1047500099A7AAA7BBA78CA89DA8AEA8BFA8A5018A
:104760009401C701B6010E94943018160CF40CC0D5
:1047700088A899A8AAA8BBA8A5019401C701B60159
:104780000E94452F87FF04C08CA29DA2AEA2BFA2AB
:10479000DF91CF91FF90EF90DF90CF90BF90AF90DF
:1047A0009F908F9008951F93CF93DF93EC0111E0BA
:1047B0006130710509F010E088AD91E08927181388
:1047C00003C0CE010E948C2318AFDF91CF911F91BF
:1047D00008950F931F93CF93DF93EC018B0188AD66
:1047E000882361F1888D998D6817790739F12C85B7
:1047F0003D854E855F8560E070E0CB010E94E02E34
:104800006C877D878E879F87288939894A895B894C
:1048100060E070E0CB010E94E02E688B798B8A8B80
:104820009B8B2C893D894E895F8960E070E0CB01CC
:104830000E94E02E6C8B7D8B8E8B9F8B198F088F47
:10484000DF91CF911F910F9108954F925F926F92D8
:104850007F928F929F92AF92BF92CF92DF92EF9210
:10486000FF920F931F93CF93DF9300D01F92CDB78A
:10487000DEB74C0127013801A982BA82CB82DC82E3
:10488000FC01558F448F738F628F378F268F10AE48
:1048900000E010E02FE733E440E050E0BA010E946E
:1048A0000F2384E690E0A0E0B0E0F40184A795A790
:1048B000A6A7B7A76C8D7D8DC4010E94E923C88C83
:1048C000D98CEA8CFB8C09811A812B813C81B30144
:1048D000A201C4010E949A210E943226F40144A43C
:1048E00055A466A477A4641975098609970960A37D
:1048F00071A382A393A30F900F900F900F90DF915D
:10490000CF911F910F91FF90EF90DF90CF90BF90CC
:10491000AF909F908F907F906F905F904F90089591
:10492000FC015081418132812381652F742F832FB7
:10493000922F0895FC015481458136812781652F8E
:10494000742F832F922F0895FC0150854185328565
:104950002385652F742F832F922F0895FC0180AD3E
:1049600090E0089561E084E30E94502561E083E3D4
:104970000E94502561E085E30E94502560E084E3B9
:104980000E94882560E083E30E94882561E085E33A
:104990000E9488258CB580618CBD8CB580648CBDEF
:1049A00008959CB5937F982B9CBD08952CB5982FA6
:1049B00093702C7F922B9CBD9DB582FB882780F93C
:1049C0009E7F982B9DBD0895893009F443C088F4DB
:1049D000843029F138F4823059F1E8F4813009F05B
:1049E0005EC023C0873061F188F5863009F057C07A
:1049F00023C08D3009F440C020F48B30A9F1C0F5FC
:104A00002DC0803109F442C0813109F443C08F3098
:104A100009F045C037C0809180008F7703C0809136
:104A200080008F7D80938000089584B58F7702C0C9
:104A300084B58F7D84BD08958091B0008F7703C0C9
:104A40008091B0008F7D8093B00008958091900098
:104A50008F7707C0809190008F7D03C08091900078
:104A6000877F8093900008958091A0008F7707C082
:104A70008091A0008F7D03C08091A000877F8093EC
:104A8000A0000895809120018F7707C080912001B8
:104A90008F7D03C080912001877F8093200108953E
:104AA000CF93DF9390E0FC01E352F84E4491FC0178
:104AB000ED5DF74E8491882341F190E0880F991FB6
:104AC000FC01E356F74E25913491D9018D57974E4D
:104AD000FC0185919491C82FD92F9FB7F8948C91A0
:104AE000611106C0409584238C938881842308C07B
:104AF000623041F4242F209582238C938881842B6B
:104B0000888302C0842B8C939FBFDF91CF9108953F
:104B10000F931F93CF93DF931F92CDB7DEB7282F4C
:104B200030E0F901E956F84E8491F901E352F84E6C
:104B30001491F901ED5DF74E04910023D1F0882323
:104B400021F069830E94E4246981E02FF0E0EE0FF8
:104B5000FF1FED57F74E85919491DC019FB7F894B4
:104B60008C91611103C01095812301C0812B8C931E
:104B70009FBF0F90DF91CF911F910F910895CF9319
:104B8000DF93282F30E0F901E956F84E8491F901BE
:104B9000E352F84ED491F901ED5DF74EC491CC2368
:104BA00089F081110E94E424EC2FF0E0EE0FFF1F4A
:104BB000E759F74E85919491DC018C918D2321E08A
:104BC00030E011F420E030E0C901DF91CF91089589
:104BD0001F920F920FB60F9211242F933F938F9332
:104BE0009F93AF93BF938091840890918508A09183
:104BF0008608B091870830918C08232F2D5F2D37C0
:104C000020F40196A11DB11D05C0232F2A5702963D
:104C1000A11DB11D20938C08809384089093850872
:104C2000A0938608B093870880918808909189089E
:104C3000A0918A08B0918B080196A11DB11D8093A7
:104C4000880890938908A0938A08B0938B08BF9135
:104C5000AF919F918F913F912F910F900FBE0F9029
:104C60001F9018950F931F938FB7F89400918408A5
:104C70001091850820918608309187088FBFB80170
:104C8000C9011F910F9108950F931F939FB7F89437
:104C9000009188081091890820918A0830918B082A
:104CA00086B5A89B06C08F3F21F00F5F1F4F2F4F87
:104CB0003F4F9FBF322F212F102F0027080F111DAC
:104CC000211D311D42E0000F111F221F331F4A9585
:104CD000D1F7B801C9011F910F910895CF92DF92CA
:104CE000EF92FF92CF93DF936B017C010E944426E9
:104CF000EB010EC00E9444266C1B7D0B683E734086
:104D000038F081E0C81AD108E108F108C851DC4F39
:104D1000C114D104E104F10469F7DF91CF91FF9050
:104D2000EF90DF90CF900895019739F0880F991F89
:104D3000880F991F02970197F1F70895789484B529
:104D4000826084BD84B5816084BD85B5826085BD87
:104D500085B5816085BDEEE6F0E08081816080836D
:104D6000E1E8F0E010828081826080838081816050
:104D70008083E0E8F0E0808181608083E1EBF0E017
:104D8000808184608083E0EBF0E0808181608083BB
:104D9000E1E9F0E0808182608083808181608083AE
:104DA000E0E9F0E0808181608083E1EAF0E08081E9
:104DB00082608083808181608083E0EAF0E080818E
:104DC00081608083E1E2F1E0808182608083808184
:104DD00081608083E0E2F1E0808181608083EAE7A6
:104DE000F0E0808184608083808182608083808124
:104DF000816080838081806880831092C1000895E3
:104E0000FC01808191810C94DD31CF93DF93EC0123
:104E100088819981009711F00E94DD3119821882F2
:104E20001D821C821B821A82DF91CF9108950F93FD
:104E30001F93CF93DF93EC018B016F5F7F4F8881CE
:104E400099810E947B32009731F0998388831B837C
:104E50000A8381E001C080E0DF91CF911F910F9123
:104E60000895CF93DF93EC0188819981892B31F0EC
:104E70008A819B818617970708F00CC0CE010E949B
:104E80001727882349F08C819D81892B19F4E881AB
:104E9000F981108281E001C080E0DF91CF91089517
:104EA000EF92FF920F931F93CF93DF93EC017B015F
:104EB0008A01BA010E943127811104C0CE010E94EB
:104EC000052707C01D830C83B701888199810E9443
:104ED0007933CE01DF91CF911F910F91FF90EF9029
:104EE0000895DC0111961C921E9213961C921E923C
:104EF000129715961C921E9214976115710559F020
:104F0000DB010D900020E9F7AD0141505109461B2E
:104F1000570B0C9450270895CF93DF93EC01FB01BE
:104F20008617970761F0608171816115710529F01D
:104F3000448155810E94502702C00E940527CE015E
:104F4000DF91CF910895FC011182108213821282A9
:104F5000158214820C948C27CF93DF93D82FC92FFE
:104F60006115710561F0DB010D900020E9F7AD01DD
:104F700041505109461B570B0E94502702C00E9406
:104F800005278D2F9C2FDF91CF910895EF92FF92EF
:104F90000F931F93CF93DF93CDB7DEB7A1970FB6D3
:104FA000F894DEBF0FBECDBF7C01CB01BA01F70183
:104FB000118210821382128215821482422F4E5F58
:104FC0008E010F5F1F4F0E942131BC01C7010E945B
:104FD000AC27A1960FB6F894DEBF0FBECDBFDF9110
:104FE000CF911F910F91FF90EF900895EF92FF9254
:104FF0000F931F93CF93DF93EC017B010C811D81F5
:105000006115710511F480E016C04115510591F04C
:10501000040F151FB8010E9431278823A1F32881AE
:1050200039818C819D81B701820F931F0E94793352
:105030001D830C8381E0DF91CF911F910F91FF9031
:10504000EF900895CF93DF931F921F92CDB7DEB7F5
:1050500069831A8241E050E0BE016F5F7F4F0E947A
:10506000F6270F900F90DF91CF910895CF93DF93A4
:10507000D82FC92FFB0144815581608171810E9425
:10508000F627811104C08D2F9C2F0E9405278D2F9C
:105090009C2FDF91CF910895DC0114962D913C91C6
:1050A0001597232B39F481E06115710511F0FB018F
:1050B00008C00895DC01ED91FC916115710529F49A
:1050C00081E09081992349F007C0CF010E9470339D
:1050D0009C0181E0232B09F080E00895FC012481EC
:1050E00035816217730748F480819181009729F018
:1050F000FC01E60FF71F8081089580E008950E946B
:105100009E260E94CF10C4EFD9E20E94D2112097B0
:10511000E1F30E94F429F9CFFC0184859585FC0117
:10512000E05CFF4F20813181FC01EE5BFF4F80810D
:105130009181281B390B2F733327C9010895FC0176
:1051400084859585FC01E05CFF4F40815181FC0125
:10515000EE5BFF4F208131814217530741F00190F0
:10516000F081E02DE80FF91F208130E002C02FEF21
:105170003FEFC9010895FC0184859585FC01E05C41
:10518000FF4F40815181FC01EE5BFF4F2081318157
:105190004217530781F0A081B181A80FB91F8C91EC
:1051A000208131812F5F3F4F2F733327318320833D
:1051B000282F30E002C02FEF3FEFC9010895FC0116
:1051C00086859785FC01E05CFF4FDC01AE5BBF4F3D
:1051D000408151812D913C91119742175307C1F79E
:1051E0000895CF93DF93FC0186859785DC01A05C51
:1051F000BF4F2D913C9111972F5F3F4F2F73332756
:10520000EC01CE5BDF4F4881598124173507D9F374
:105210000D90BC91A02DA80FB91F6C93A685B785E2
:10522000A05CBF4F11963C932E93A689B7892C9111
:1052300081E090E0058C02C0880F991F0A94E2F784
:10524000282B2C9381E090E0DF91CF910895FB0112
:10525000E05CFF4F208131812F5F3F4F2F73332759
:10526000DB01AE5BBF4F4D915C912417350739F0E0
:10527000A081B181A60FB71F8C933183208308953D
:1052800008951F920F920FB60F9211240BB60F9232
:105290002F933F934F935F936F937F938F939F933E
:1052A000AF93BF93EF93FF938091C60065EE7AE0D2
:1052B0000E942729FF91EF91BF91AF919F918F910C
:1052C0007F916F915F914F913F912F910F900BBE06
:1052D0000F900FBE0F901F90189508951F920F9278
:1052E0000FB60F9211240BB60F922F933F934F934B
:1052F0005F936F937F938F939F93AF93BF93EF933E
:10530000FF938091CE006DE57AE00E942729FF91FE
:10531000EF91BF91AF919F918F917F916F915F912D
:105320004F913F912F910F900BBE0F900FBE0F909A
:105330001F90189508951F920F920FB60F92112487
:105340000BB60F922F933F934F935F936F937F937F
:105350008F939F93AF93BF93EF93FF938091D6006A
:1053600065ED79E00E942729FF91EF91BF91AF9100
:105370009F918F917F916F915F914F913F912F916D
:105380000F900BBE0F900FBE0F901F9018950895B1
:105390001F920F920FB60F9211240BB60F922F93FC
:1053A0003F934F935F936F937F938F939F93AF93AD
:1053B000BF93EF93FF93809136016DE479E00E94F3
:1053C0002729FF91EF91BF91AF919F918F917F918D
:1053D0006F915F914F913F912F910F900BBE0F9066
:1053E0000FBE0F901F9018958AEE98E00E948C28AF
:1053F000892B11F00E9440298BEC98E00E948C28A8
:10540000892B11F00E946D298CEA98E00E948C286B
:10541000892B11F00E949A298DE898E00E948C282F
:10542000892B11F00C94C72908951F920F920FB683
:105430000F9211240BB60F922F933F938F939F934C
:10544000EF93FF932091E10A3091E20A8091E30A01
:105450009091E40A2817390731F48091C1008F7DBB
:105460008093C10014C0E091E30AF091E40AEF5583
:10547000F54F20818091E30A9091E40A01968F73A1
:1054800099279093E40A8093E30A2093C600FF9142
:10549000EF919F918F913F912F910F900BBE0F90A5
:1054A0000FBE0F901F9018951F920F920FB60F927C
:1054B00011240BB60F922F933F938F939F93EF93EB
:1054C000FF932091590A30915A0A80915B0A90917A
:1054D0005C0A2817390731F48091C9008F7D8093C9
:1054E000C90014C0E0915B0AF0915C0AE75EF54FD9
:1054F000208180915B0A90915C0A01968F739927B5
:1055000090935C0A80935B0A2093CE00FF91EF9109
:105510009F918F913F912F910F900BBE0F900FBED7
:105520000F901F9018951F920F920FB60F92112493
:105530000BB60F922F933F938F939F93EF93FF930D
:105540002091D1093091D2098091D3099091D40949
:105550002817390731F48091D1008F7D8093D100D5
:1055600014C0E091D309F091D409EF56F64F208191
:105570008091D3099091D40901968F7399279093C4
:10558000D4098093D3092093D600FF91EF919F9186
:105590008F913F912F910F900BBE0F900FBE0F90E8
:1055A0001F9018951F920F920FB60F9211240BB6F1
:1055B0000F922F933F938F939F93EF93FF9320919D
:1055C000490930914A0980914B0990914C0928175B
:1055D000390731F4809131018F7D8093310114C0FE
:1055E000E0914B09F0914C09E75FF64F20818091E3
:1055F0004B0990914C0901968F73992790934C0910
:1056000080934B0920933601FF91EF919F918F91E9
:105610003F912F910F900BBE0F900FBE0F901F90D8
:105620001895CF92DF92EF92FF92CF93DF93EC0128
:105630006A017B01411581EE580761057105F9F09A
:10564000EC89FD8981E090E00E8C02C0880F991FE3
:105650000A94E2F7808360E079E08DE390E0A701AF
:1056600096010E94FB30215031094109510956959C
:10567000479537952795211580E1380798F0EC89F3
:10568000FD89108260E874E88EE190E0A701960140
:105690000E94FB3021503109410951095695479527
:1056A00037952795E889F9893083EA89FB89208332
:1056B000EE89FF89408181E090E09C010A8C02C064
:1056C000220F331F0A94E2F7422B4083EE89FF89B1
:1056D00040819C010B8C02C0220F331F0A94E2F719
:1056E000422B4083EE89FF8940819C010C8C02C0D3
:1056F000220F331F0A94E2F7422B4083EE89FF8981
:1057000020810D8C02C0880F991F0A94E2F78095C2
:1057100082238083DF91CF91FF90EF90DF90CF9035
:105720000895CF931092ED081092EC0888EE93E064
:10573000A0E0B0E08093EE089093EF08A093F0080B
:10574000B093F10820E233E03093EB082093EA08AD
:1057500045EE5AE05093F7084093F60841EA5AE0C4
:105760005093F9084093F80845EC50E05093FB083B
:105770004093FA0844EC50E05093FD084093FC0835
:1057800040EC50E05093FF084093FE0841EC50E09D
:10579000509301094093000946EC50E050930309EF
:1057A00040930209C4E0C0930409F3E0F0930509B3
:1057B000E7E0E093060975E07093070961E0609304
:1057C00008091092CE081092CD088093CF089093CC
:1057D000D008A093D108B093D2083093CC0820937E
:1057E000CB084DE55AE05093D8084093D70849E1DB
:1057F0005AE05093DA084093D9084DEC50E05093AA
:10580000DC084093DB084CEC50E05093DE084093FA
:10581000DD0848EC50E05093E0084093DF0849EC85
:1058200050E05093E2084093E1084EEC50E0509372
:10583000E4084093E308C093E508F093E608E0939A
:10584000E7087093E8086093E9081092AF08109297
:10585000AE088093B0089093B108A093B208B093BB
:10586000B3083093AD082093AC0845ED59E0509350
:10587000B9084093B80841E959E05093BB084093F8
:10588000BA0845ED50E05093BD084093BC0844ED84
:1058900050E05093BF084093BE0840ED50E0509355
:1058A000C1084093C00841ED50E05093C3084093B5
:1058B000C20846ED50E05093C5084093C408C09319
:1058C000C608F093C708E093C8087093C9086093AE
:1058D000CA081092900810928F08809391089093B4
:1058E0009208A0939308B093940830938E08209365
:1058F0008D088DE499E090939A088093990889E047
:1059000099E090939C0880939B0885E391E09093A5
:105910009E0880939D0884E391E09093A008809373
:105920009F0880E391E09093A2088093A10881E30F
:1059300091E09093A4088093A30886E391E090936C
:10594000A6088093A508C093A708F093A808E09341
:10595000A9087093AA086093AB08CF910895CF92DD
:10596000DF92EF92FF920F931F93CF93DF936C011F
:10597000EB017A01E60EF71E00E010E00BC0699122
:10598000D601ED91FC910190F081E02DC6011995B1
:10599000080F191FCE15DF0591F7C801DF91CF91D0
:1059A0001F910F91FF90EF90DF90CF900895DB0152
:1059B0000D900020E9F7AD0141505109461B570BEE
:1059C000DC01ED91FC910280F381E02D1994AF92FE
:1059D000BF92CF92DF92EF92FF920F931F93CF93DC
:1059E000DF937C016B0100E010E0C0E0D0E011C06B
:1059F000D701ED91FC91A080B180B801C6010E9451
:105A00006E28682FC701F5011995C80FD91F0F5FC0
:105A10001F4FD60114968D919C9115970817190761
:105A200038F3CE01DF91CF911F910F91FF90EF904E
:105A3000DF90CF90BF90AF900895DC01ED91FC9185
:105A40000190F081E02D19940F931F93CF93DF9372
:105A5000EC016DE00E941D2D8C016AE0CE010E94D8
:105A60001D2D9C01200F311FC901DF91CF911F9186
:105A70000F9108950F931F93CF93DF93EC010E9432
:105A8000E72C8C01CE010E94242D9C01200F311F98
:105A9000C901DF91CF911F910F9108950F931F932B
:105AA000CF93DF93EC010E94D72C8C01CE010E9492
:105AB000242D9801280F391FC901DF91CF911F9123
:105AC0000F9108954F925F926F927F929F92AF9243
:105AD000BF92CF92DF92EF92FF920F931F93CF93DB
