:100000000C94F90C0C942A0D0C942A0D0C942A0DC6
:100010000C942A0D0C942A0D0C942A0D0C942A0D84
:100020000C942A0D0C942A0D0C942A0D0C942A0D74
:100030000C942A0D0C942A0D0C942A0D0C942A0D64
:100040000C942A0D0C942A0D0C942A0D0C942A0D54
:100050000C942A0D0C942A0D0C942A0D0C941D2638
:100060000C942A0D0C9476290C944A2A0C942A0D8F
:100070000C942A0D0C942A0D0C942A0D0C942A0D24
:100080000C942A0D0C942A0D0C942A0D0C942A0D14
:100090000C94A3290C94892A0C942A0D0C942A0DF3
:1000A0000C942A0D0C942A0D0C942A0D0C942A0DF4
:1000B0000C942A0D0C942A0D0C942A0D0C942A0DE4
:1000C0000C942A0D0C942A0D0C942A0D0C94D02912
:1000D0000C94C82A0C942A0D0C94FD290C94072B1F
:1000E0000C942A0DFFD0FFE0FFCFFF64FFD1FF3259
:1000F000380C060201FF64FFD0FFFE001F1AFEFB52
:100100000E0374075F20FFFC15FB0EFC00000006C9
:100110000000030E0E080300E0E0E0E0E0E0E0E0B5
:10012000E0E00000E0E00806060A0108E76767670C
:1001300067670C0E1C0E0100066006600C603FF045
:100140003FF018C019801980FFE0FFE03300330052
:10015000630066000A11220C01FE04001F007F806C
:100160007780E5C0E400FC007E001F8007C005C06A
:10017000E5C0E5C07F803F0004000400120E2A1491
:1001800001003C04007E0C00C31800C31000C33003
:1001900000E760007E670018CD800098C00198C01D
:1001A0000318C00318C0060F800C07000E0E1C10A9
:1001B00001001F007F8071C071C073803F001E006E
:1001C0007E38F730E3B0E1F0E0E07FF01FBC0306DB
:1001D00006080308E0C0C0C0C0C00411110802FD39
:1001E00030707060E0E0E0E0E0E0E0E0E06070707F
:1001F000300411110802FDC0C0E0E0606070707052
:1002000070706060E0E0C0C00807070C0207663C41
:1002100018FF183C660C0C181404000200020002BF
:100220000002000200FFF0FFF002000200020002E4
:100230000002000405050601FE707060E0C00503C1
:1002400003070104F8F8F8030303060200E0E0E006
:10025000060F0F0901FF0C0C0C0C18181830303069
:1002600060606060C00A0E1C0B01001E007F006110
:1002700080E1C0E1C0E1C0E1C0E1C0E1C0E1C0E1B6
:10028000C061807F801E00060E0E0B02001C7CFCED
:10029000DC1C1C1C1C1C1C1C1C1C1C0A0E1C0B012A
:1002A000001F007F8061C0E1C001C001C003800762
:1002B000800F001E0038007000FFC0FFC00A0E1C37
:1002C0000B01003E007F00E380038003801F001FBE
:1002D00000038001C001C0E1C0F3807F003E000B3D
:1002E0000E1C0B010007800F800F801B803B8033AA
:1002F0008073806380E380FFE0FFE003800380037E
:10030000800A0E1C0B0100FF80FF80E000E000E08F
:1003100000FF00FF80E18001C001C0E1C0E3807FF9
:10032000003E000A0E1C0B01001E003F8061806031
:1003300000E000DF00FF80E180E1C0E1C0E1C061DA
:10034000807F801E000A0E1C0B0100FFC0FFC00151
:10035000C0038003800780070007000E000E001C0A
:10036000001C003C0038000A0E1C0B01003F007FFF
:1003700080E1C0E1C0E1807F003F007380E1C0E127
:10038000C0E1C0E1C07F803F000A0E1C0B01001ECF
:10039000007F00E180E180E1C0E1C0F3C07FC019CF
:1003A000C00180E18063807F003E00030A0A0703EA
:1003B00000E0E0E000000000E0E0E0040C0C0601DA
:1003C000FE707070000000007060E0C0C00C0A1485
:1003D000140401001000E003801C00E000C000389D
:1003E00000070001C000300C050A140403FFF0FFF1
:1003F000F00000FFF0FFF00C0A14140401800070FC
:10040000001C0003800070003001C00E003800C0E6
:1004100000090E1C0B01003E007F00C380438003D7
:1004200080070006000C00180018001800000018D3
:100430000018001312361501FC01F8000FFE001E13
:1004400007803803C071FDC073FCE0E71CE0E71CC7
:10045000E0E71CE0E71CE0E71CE0E73CC073FFC0FE
:1004600071E7803800001E04000FFC0003FC000E42
:100470000E1C0E00000780078007C00FC00EC01CB6
:10048000E01CE01C6038703FF03FF870387038E0D6
:100490001C0B0E1C0D0100FF00FF80E1C0E1C0E15C
:1004A000C0E380FF00FF80E0C0E0E0E0E0E0E0FFCC
:1004B000C0FF000D0E1C0F01000F803FE070706048
:1004C00070E000E000E000E000E000E078607070C4
:1004D000F03FE00F800C0E1C0E0100FF00FFC0E19A
:1004E000E0E0E0E070E070E070E070E070E070E0AC
:1004F000E0E1E0FFC0FF000A0E1C0C0100FFC0FF9E
:10050000C0E000E000E000E000FF80FF80E000E0ED
:1005100000E000E000FFC0FFC0090E1C0B0100FF5F
:1005200080FF80E000E000E000E000FF80FF80E06E
:1005300000E000E000E000E000E0000D0E1C0F0114
:10054000000FC01FF038387038E000E000E1F8E13B
:10055000F8E038E038703878383FF80FF00C0E1CAF
:100560000E0100E070E070E070E070E070E070FF9D
:10057000F0FFF0E070E070E070E070E070E07003B9
:100580000E0E050100E0E0E0E0E0E0E0E0E0E0E0A9
:10059000E0E0E00A0E1C0C010001C001C001C00136
:1005A000C001C001C001C001C001C0E1C0E1C0F391
:1005B000C07F803E000B0E1C0D0100E1E0E3C0E3B4
:1005C00080E700EE00FC00FC00FE00EE00E700E724
:1005D00080E3C0E1C0E0E00A0E1C0B0100E000E097
:1005E00000E000E000E000E000E000E000E000E00B
:1005F00000E000E000FFC0FFC0100E1C120100F878
:100600001FF81FFC3FFC3FFC37EC77EE77EE67E608
:10061000E7E7E7E7C7E3C7E3C7E3870D0E1C0F0172
:1006200000F038F838F838FC38EE38EE38E738E7BC
:1006300038E3B8E3B8E1F8E1F8E0F8E0F80E0E1CB2
:100640001001000FC03FF070706038E018E01CE04F
:100650001CE01CE01CE018603870703FF00FC00B0D
:100660000E1C0D0100FF00FFC0E1C0E0E0E0E0E093
:10067000E0E1C0FFC0FF00E000E000E000E000E0DB
:10068000000F0E1C1101000FC03FE070706038E0D9
:1006900018E01CE01CE01CE01CE018603870783F9B
:1006A000FE0FFE0B0E1C0D0100FF80FFC0E0E0E01E
:1006B000E0E0E0E0E0FF80FFC0E1C0E0E0E0E0E09B
:1006C000E0E0E0E0600C0E1C0E01001F803FC06007
:1006D000E0E0E0E000FC007F801FE003E00070E06D
:1006E00070E0607FC01F800C0E1C0E0100FFF0FF49
:1006F000F00E000E000E000E000E000E000E000E9A
:10070000000E000E000E000E000C0E1C0E0100E08C
:1007100070E070E070E070E070E070E070E070E059
:1007200070E070E07070E03FC01F800E0E1C0F0084
:1007300000F01C701C703C3838383838701C701C45
:10074000701EE00EE00FC007C007C00780140E2A1D
:10075000140000F0F0F070F0E070F0E071F8E0717B
:10076000F8E03999C03999C03B9DC03B9DC01B0D35
:10077000801F0F801F0F801F0F800E07000C0E1CA4
:100780000E0100E07070E078E039C01F801F000F9C
:10079000000F001F803BC039C070E0E0F0E0700C3B
:1007A0000E1C0D0000F07070F038E038E01DC01D28
:1007B000C00F800F000700070007000700070007B1
:1007C000000B0E1C0D01007FE07FE001E003C00381
:1007D0008007800F001E001E003C007800F800FF1C
:1007E000E0FFE00512120802FCF8F8E0E0E0E0E0CB
:1007F000E0E0E0E0E0E0E0E0E0F8F8060F0F0901FB
:10080000FFC0C0606060303030101818180C0C0C3D
:100810000512120802FCF8F83838383838383838F9
:10082000383838383838F8F80A0C181405000C0035
:100830000C000C0012001200330021002100408047
:100840004080C0C080400A02040A00FDFFC0FFC013
:1008500005040405FF0CE0703018090A140B0100B0
:100860003E007F80E3801F807F80E380E380E38021
:10087000FF8039800A0E1C0C0100E000E000E0005F
:10088000E000EF00FF80E1C0E1C0E1C0E1C0E1C0F5
:10089000E180FF80EF00090A140B01003E007F0099
:1008A000E380E380E000E000E380E3807F003E003F
:1008B0000A0E1C0C010001C001C001C001C03DC0F6
:1008C0007FC0E1C0E1C0E1C0E1C0E1C0E1C07FC0E4
:1008D0003DC0090A140B01001E007F00E380E38085
:1008E000FF80FF80E000E3807F803E00070E0E085F
:1008F00001001E3E3838FEFE38383838383838386F
:100900000A0E1C0C01FC3DC07FC071C0E1C0E1C0FB
:10091000E1C0E1C0E1C07FC03DC001C061C07F80D7
:100920003F00090E1C0B0100E000E000E000E000C9
:10093000EF00FF80E380E380E380E380E380E380F7
:10094000E380E380030E0E050100E0E0E000E0E05C
:10095000E0E0E0E0E0E0E0E00412120702FC70708A
:100960007000707070707070707070707070F0E007
:10097000090E1C0B0100E000E000E000E000E78051
:10098000E700EE00FC00FC00FC00EE00E700E700E2
:10099000E380030E0E050100E0E0E0E0E0E0E0E0CF
:1009A000E0E0E0E0E0E00F0A14120100EF3CFFFE9F
:1009B000E3CEE386E386E386E386E386E386E386A7
:1009C000090A140B0100EF00FF80E380E380E3805D
:1009D000E380E380E380E380E3800A0A140C0100F3
:1009E0001E007F806180E1C0E1C0E1C0E1C06180A4
:1009F0007F801E000A0E1C0C01FCEF00FF80E180CE
:100A0000E1C0E1C0E1C0E1C0E1C0FF80EF00E00073
:100A1000E000E000E0000A0E1C0C01FC3DC07FC0BD
:100A2000E1C0E1C0E1C0E1C0E1C0E1C07FC03DC0C4
:100A300001C001C001C001C0060A0A080100ECFCA7
:100A4000F0E0E0E0E0E0E0E0090A140B01003E0025
:100A5000FF00E380E0007E001F000380E380FF00D2
:100A60003E00070D0D090100083838FEFE38383801
:100A70003838383E1E090A140B0100E380E380E396
:100A800080E380E380E380E380E380FF807B800B72
:100A90000A140B0000E0E071C071C031803B803B64
:100AA000801B001F001F000E00110A1E110000E134
:100AB000C38061E30073E7007367003377003F761C
:100AC000003F3E003E3E001E3C001E1C00090A1472
:100AD0000B0100E380730077003E001C003E003EE7
:100AE000007700E380E3800B0E1C0B00FCE0E0715C
:100AF000C071C039803B803B801F001F000F000E7B
:100B0000000E000E001C001C00080A0A0A0100FF6B
:100B1000FF070E1C3870E0FFFF0713130A02FB0EDD
:100B20003E383838383830F0C0F070383838383817
:100B30003E0E0115150703FB808080808080808039
:100B400080808080808080808080808080071313F8
:100B50000A02FBE0F03838383838381C061C3838C0
:100B600038383838F0E00B03060B000430607FC0E3
:100B7000C780FFFFFFFFFFFFFFFFFFFFFFFFFFFF3C
:100B8000FFFFFFFFFFFFFFFFFFFFFFFFFFFFFFFF75
:100B9000FFFFFF000000060000030E0E0903FCE04B
:100BA000E00000E0E0E0E0E0E0E0E0E0E0090E1C72
:100BB0000B01FE020002003E007F00E780E780E8B4
:100BC00000E800EB80F3807F003E00200020000A58
:100BD0000E1C0C01001F003FC071C070007000FEB1
:100BE00000FE0070007000700070007000FFC0FF19
:100BF000C00A0A140C010380405E8021004080403E
:100C0000804080408021005E8080400B0E1C0D01E2
:100C100000E0E0E1C071C07180FBE0FBE01F00FF7D
:100C2000E0FFE00E000E000E000E000E000112129A
:100C30000703FC808080808080808000008080802E
:100C400080808080800812120A01FC3E7EE0E07005
:100C50003C7EE7E7E7FE7C1E070787FE38070202B7
:100C600007000CEEEE0F0E1C11010007C01FF0373D
:100C7000986FCCCCE49C029C029CE28CE2CFC647ED
:100C80008420181C700FC007090908010578CC7C66
:100C9000CCCCFC2400FE0A08100C010139C0718084
:100CA0007380E700E7007380718039C00B050A0D7F
:100CB0000104FFE0FFE0002000200020FF0F0E1CD9
:100CC00011010007C01FF03F986FECCC648C628F5D
:100CD000C28FC28C62CC664C6420181C700FC00698
:100CE000020206000CFCFC05050507010970888856
:100CF00088700C0C18140400020002000200FFF0BF
:100D0000FFF002000200020000000000FFF0FFF010
:100D100006080808010678CC0C1830E0FCFC060731
:100D20000708010778CC0C300CCC780404040401CB
:100D30000C306060C0FF0911220B01FD3F8079007B
:100D4000F900F900F900F90079000900090009002B
:100D5000090009000900090009000900090003034E
:100D600003060205E0E0E00505050501FB407018FB
:100D700018F004080806010630F03030303030300A
:100D80000709090901053844C6C6C6443800FE0AE9
:100D900008100C0101E7006380738039C039C0730B
:100DA000806380E7000E0E1C1001007030F03030C0
:100DB0006030C030C03180319C333C063C066C0C46
:100DC000CC18FC180C300C0F0E1C1101007030F008
:100DD00020306030C030C03180333C336606060CB2
:100DE0000E0C1C1830307E307E0E0E1C1001007868
:100DF00018CC300C3030600CC0CCC0799C01BC03E6
:100E00003C066C06CC0CFC080C180C090E1C0B01E3
:100E1000FC0E000E0000000E000E000E003C0070E4
:100E200000E000E000E180E1807F803E000E1428B9
:100E30000E00000C000E000600030000000000077A
:100E400080078007C00FC00EC01CE01CE01C60388B
:100E5000703FF03FF870387038E01C0E14280E0018
:100E60000000C001C00180030000000000078007EF
:100E70008007C00FC00EC01CE01CE01C6038703F33
:100E8000F03FF870387038E01C0E14280E00000394
:100E900080078006C00CC0000000000780078007A4
:100EA000C00FC00EC01CE01CE01C6038703FF03F5B
:100EB000F870387038E01C0E13260E000006400F44
:100EC000C00880000000000780078007C00FC00E28
:100ED000C01CE01CE01C6038703FF03FF8703870B8
:100EE00038E01C0E13260F00000EE00EE00000009C
:100EF0000000000380078007C007C00EC00EE01C82
:100F0000E01C701C703FF83FF87038701CE01C0D3E
:100F1000152A0F01000700088008800880070000DC
:100F200000000007000F800F801DC01DC01DC038CD
:100F3000E038E030607FF07FF0E038E038E03813F0
:100F40000E2A14000000FFE001FFE003F000037030
:100F5000000770000770000E7FC00E7FC01C70007D
:100F60001FF0003FF000707000707FE0E07FE00D48
:100F700012240F01FC0F803FE070F06070E000E091
:100F800000E000E000E000E078607070F03FE01FFB
:100F9000800400078001800F000A14280C01003033
:100FA00000380018000C0000000000FFC0FFC0E087
:100FB00000E000E000E000FF80FF80E000E000E0F3
:100FC00000E000FFC0FFC00A14280C010007000663
:100FD000000C00080000000000FFC0FFC0E000E0BF
:100FE00000E000E000FF80FF80E000E000E000E0C3
:100FF00000FFC0FFC00A14280C01001C001E0036B0
:1010000000230000000000FFC0FFC0E000E000E09F
:1010100000E000FF80FF80E000E000E000E000FF73
:10102000C0FFC00A13260C01007700770000000003
:10103000000000FFC0FFC0E000E000E000E000FFB3
:1010400080FF80E000E000E000E000FFC0FFC0059E
:10105000141405FF00E060301000003838383838CC
:101060003838383838383838380414140501003026
:101070007060C00000E0E0E0E0E0E0E0E0E0E0E040
:10108000E0E0E00514140500007070D888000070DE
:101090007070707070707070707070707007131373
:1010A000070000EEEE00000038383838383838389D
:1010B0003838383838380D0E1C0E00007F807FE03D
:1010C00070F0707070387038FE38FE3870387038D4
:1010D000707070F07FE07F800D13260F01000C40D0
:1010E0001F80110000000000F038F838F838FC3894
:1010F000EE38EE38E738E738E3B8E3B8E1F8E1F87E
:10110000E0F8E0F80E14281001001C000C000600A6
:101110000200000000000FC03FF070706038E0185F
:10112000E01CE01CE01CE01CE018603870703FF030
:101130000FC00E142810010000E001C00180030060
:10114000000000000FC03FF070706038E018E01C35
:10115000E01CE01CE01CE018603870703FF00FC02D
:101160000E1428100100070007800DC008C0000001
:1011700000000FC03FF070706038E018E01CE01C09
:10118000E01CE01CE018603870703FF00FC00E13D8
:101190002610010007C00FC00000000000000FC0B3
:1011A0003FF070306038E018E01CE01CE01CE01CF0
:1011B000E018703878F03FF00FC00E1326100100D1
:1011C0001DC01DC00000000000000FC03FF0707087
:1011D0006038E018E01CE01CE01CE01CE0186038FF
:1011E00070703FF00FC00A0A141405018040C0C09F
:1011F000618033000C000C00120021004080804010
:101200000F10201000FF000207E61FFC383C303CA6
:10121000706C70EE71CE738E770E7E0C7C1C38383D
:101220003FF0EFE040000C14280E010038001800D9
:101230000C00060000000000E070E070E070E0705C
:10124000E070E070E070E070E070E070E07071E01D
:101250003FC01F800C14280E010001C00380030052
:10126000060000000000E070E070E070E070E070E8
:10127000E070E070E070E070E070E07071E03FC03E
:101280001F800C14280E01000E000F001B0011809F
:1012900000000000E070E070E070E070E070E0706E
:1012A000E070E070E070E070E07071E03FC01F80BF
:1012B0000C13260E01001DC01DC000000000000020
:1012C000E070E070E070E070E070E070E070E0709E
:1012D000E070E070E07070E03FC01F800C13260DDE
:1012E000000001800300020000000000F07070F0B8
:1012F00038E038E01DC01DC00F800F000700070058
:1013000007000700070007000B0E1C0D0100E0009E
:10131000E000FF00FFC0E1C0E0E0E0E0E0E0E1C0AD
:10132000FF80FE00E000E000E0000A0E1C0C01005F
:101330003E007F80E380E380E300E700EE00EE0004
:10134000E780E3C0E1C0FDC0FFC0EF800910200BC3
:1013500001007000300018000800000000003E008E
:101360007F80E3801F807F80E380E380E380FF80D5
:1013700039800910200B0100070006000C000C004A
:10138000000000003E007F80E38003803F80FB8000
:10139000E380E380FF8079800910200B01001C00AE
:1013A0001E0036002300000000003E007F80E38026
:1013B0001F807F80E380E380E380FF803980090E17
:1013C0001C0B01003F003E00000000003E007F803B
:1013D000E3801F807F80E380E380E380FF803980AB
:1013E000090F1E0B010077007700000000000000CD
:1013F0003E007F80E3801F807F80E380E380E38086
:10140000FF8039800911220B01001C0022002200FC
:1014100022001C00000000003E007F80E3801F804F
:101420007F80E380E380E380FF803980100A14121C
:1014300001003E7C7FFEE3871FFF7FFFE380E380A8
:10144000E3C7FEFE3C7C090E1C0B01FC3E007F0046
:10145000E380E380E000E000E380E3807F003E0083
:1014600010001E0006003E000910200B0100700055
:10147000300018000800000000001E007F00E3801C
:10148000E380FF80FF80E000E3807F803E00091062
:10149000200B0100070006000C00080000000000FF
:1014A0001E007F00E380E380FF80FF80E000E38098
:1014B0007F803E000910200B01001C001E0036003A
:1014C0002300000000001E007F00E380E380FF8017
:1014D000FF80E000E3807F803E00090F1E0B0100CB
:1014E000770077000000000000001E007F00E3800E
:1014F000E380FF80FF80E000E3807F803E00040FF8
:101500000F050000C0E06030007070707070707087
:10151000707070040F0F0401007060C08000E0E084
:10152000E0E0E0E0E0E0E0E0070F0F05FF00387CDE
:101530004CC60038383838383838383838070E0E46
:10154000060000EEEE0000383838383838383838C1
:10155000380A0E1C0C010039800F001F0063001FA9
:10156000807F8061C0E1C0E1C0E1C0E1C061C07FB7
:10157000801F00090E1C0B01003E003C0000000013
:1015800000EF00FF80E380E380E380E380E380E31B
:1015900080E380E3800A10200C010030001800185E
:1015A000000C00000000001E007F806180E1C0E1AF
:1015B000C0E1C0E1C061807F801E000A10200C01E4
:1015C000000300060006000C00000000001E007F63
:1015D000806180E1C0E1C0E1C0E1C061807F801E28
:1015E000000A10200C01000C001E001A003300003D
:1015F0000000001E007F806180E1C0E1C0E1C0E129
:10160000C061807F801E000A0E1C0C01001F003E7E
:1016100000000000001E007F806180E1C0E1C0E1A9
:10162000C0E1C061807F801E000A0F1E0C01003BDC
:10163000803B800000000000001E007F806180E190
:10164000C0E1C0E1C0E1C061807F801E000C0810D5
:1016500014040206000E000000FFF0FFF000000678
:10166000000E000A0C180C010000C01F807F806370
:1016700080E7C0EDC0E9C0F1C071807F80DE0080EE
:10168000000910200B010070003000180008000055
:10169000000000E380E380E380E380E380E380E315
:1016A00080E380FF807B800910200B01000700068B
:1016B000000C00080000000000E380E380E380E30A
:1016C00080E380E380E380E380FF807B800910205B
:1016D0000B01001C001C003600220000000000E38B
:1016E00080E380E380E380E380E380E380E380FFC6
:1016F000807B80090F1E0B0100770077000000003F
:10170000000000E380E380E380E380E380E380E3A4
:1017100080E380FF807B800B13260B00FC0180039D
:101720000002000400000070E071C071C039C03BCD
:10173000801B801F801F000F000E000E004E00FC5B
:101740000078000A12240C01FCE000E000E000E058
:1017500000EF00FF80E180E1C0E1C0E1C0E1C0E155
:10176000C0FF80FF00E000E000E000E0000B12247A
:101770000B00FC3B803B8000000000E1E071C07189
:10178000C073803B803B801F001F001F000E000EB7
:10179000000C001C001C000000090A02080B0C0DC4
:1017A0000706030401000000000000000000000024
:1017B0000000000000000000000000000000000029
:1017C00000000011100F00000000000000000000E9
:1017D00000000000000000000000000000010210F6
:1017E000202008081020401020408002010201083B
:1017F00004020101020408102040808040201008EB
:101800000402018004020180402010080402010843
:1018100004020101020408102040800102040810A3
:101820002040800505050507050808080802020292
:10183000020A0A080804040404010101010101016B
:10184000010303030303030303040707070C0C0C42
:101850000C0C0C0C0C02020202060606060606061A
:10186000060B0B0B0B0B0B0B0B00002000230026B1
:101870000029002C002F00320000010000030106A7
:1018800001090100002200250028002B002E003154
:1018900000340002010000050108010B01000021D5
:1018A00000240027002A002D003000330001010031
:1018B00000040107010A01494E46494E4954594E58
:1018C000414E000020410000C84200401C4620BCA0
:1018D000BE4CCA1B0E5AAEC59D74CDCCCC3D0AD7AA
:1018E000233C17B7D13877CC2B329595E6241FB11E
:1018F0004F0A00407A10F35A00A0724E18090010E7
:10190000A5D4E80000E87648170000E40B54020074
:1019100000CA9A3B000000E1F5050000809698009F
:10192000000040420F000000A086010000001027C8
:1019300000000000E8030000000064000000000058
:101940000A00000000000100000000002C76D8888A
:10195000DC674F0823DFC1DFAE59E1B1B796E5E39D
:10196000E453C63AE651997696E8E6C28426EB89B6
:101970008C9B62ED407C6FFCEFBC9C9F40F2BAA553
:101980006FA5F490055A2AF75C936B6CF9676DC1EB
:101990001BFCE0E40D47FEF520E6B500D0ED902EEF
:1019A0000300943577050080841E080000204E0A4D
:1019B000000000C80C333333330F986E128311418B
:1019C000EF8D2114893BE65516CFFEE6DB18D18456
:1019D0004B381BF77C1D901DA4BBE424203284727D
:1019E0005E228100C9F124ECA1E53D27B913C62B85
:1019F0004A1411241FBECFEFD1E2DEBFCDBF00E0FD
:101A00000CBF13E0A0E0B2E0E2EBFFE600E00BBFAA
:101A100002C007900D92AA34B107D9F719E0AAE4E1
:101A2000B3E001C01D92AE34B107E1F719E1C0EF98
:101A3000D9E100E006C022970109FE010BBF0E9418
:101A40005231CC3ED10780E00807A9F70E94B428A4
:101A50000C94C7370C940000CF93DF93EC01262F32
:101A60004CAD6BAD04960E94E11A2BAD992787FD12
:101A70009095820F911D8BAF81E090E0DF91CF9127
:101A8000089561E088E00E94BD2581E080935E03B7
:101A9000089581110C94410D60E088E00E94BD25FD
:101AA00010925E030895882339F08AE895E00E9439
:101AB000E32480931E02089560911E0270E08AE87C
:101AC00095E00C94082480917D0581113AC08091A5
:101AD0007E0590917F05A0918005B091810580934E
:101AE000C5059093C605A093C705B093C80540915E
:101AF00012025091130260911402709115028EE748
:101B000093E00E94551940918205509183056091A0
:101B10008405709185058EE793E00E944D196091D0
:101B20001002709111028EE793E00E945B198AE81F
:101B300095E00E94E32480931E0281E080937D055E
:101B400008958EE793E00E949D1510927D0580E038
:101B50000C94530DAF92BF92CF92DF92EF92FF920F
:101B60000F931F93CF93DF93CDB7DEB766970FB672
:101B7000F894DEBF0FBECDBF6B017C010E946726CB
:101B8000AA24A394B12CAC0EBD1E850123E043E032
:101B9000C701B6010E94563162E070E08BE096E02A
:101BA0000E94CE1490E1E92E03E2DA2CFB2C16E31E
:101BB0006BEF70E081ED95E00E944E1B10920806DD
:101BC000E092090640911F0250912002609121028B
:101BD0007091220222E0CE0141960E94FB2767E32A
:101BE00072E0CE010B960E94A627BE016F5E7F4F6A
:101BF000CE010B960E946B28BC018DEC95E00E94F3
:101C00001C2DCE010B960E943527CE0141960E94D5
:101C1000352710920806009309066D2D7F2DCE0101
:101C200041960E94A6276FE372E0CE010B960E94B8
:101C3000A627BE016F5E7F4FCE010B960E946B28D8
:101C4000BC018DEC95E00E941C2DCE010B960E94EC
:101C50003527CE0141960E94352710920806109331
:101C600009066FE573E0CE0141960E94D82762E431
:101C700072E0CE010B960E94A627BE016F5E7F4FD9
:101C8000CE010B960E946B28BC018DEC95E00E9462
:101C90001C2DCE010B960E943527CE0141960E9445
:101CA000352781ED95E00E94281E811181CF66962F
:101CB0000FB6F894DEBF0FBECDBFDF91CF911F915D
:101CC0000F91FF90EF90DF90CF90BF90AF9008956D
:101CD00061E086E10E94BD2580917D05882339F071
:101CE00081E090E0909319068093180604C010924A
:101CF00019061092180667EF72E089EE96E00E94CE
:101D0000832D40911F025091200260912102709119
:101D1000220222E030E089EE96E00E94012F69EF76
:101D200072E089EE96E00E94832D60910B0670911F
:101D30000C06882777FD8095982F0E941930AB01FB
:101D4000BC0122E030E089EE96E00E94012F6BEFAB
:101D500072E089EE96E00E94832D8AE895E00E9469
:101D6000C524AB01BC0122E030E089EE96E00E9480
:101D7000012F6DEF72E089EE96E00E94832D8AE8D4
:101D800095E00E94CF24AB01BC0122E030E089EE57
:101D900096E00E94012F6FEF72E089EE96E00E94BC
:101DA000832D8AE895E00E94D924AB01BC0122E092
:101DB00030E089EE96E00E94012F61E073E089EE49
:101DC00096E00E94832D60911806709119064AE0F2
:101DD00050E089EE96E00E943E2E63E073E089EECB
:101DE00096E00E94832D60910D0670910E06882763
:101DF00077FD8095982F0E941930AB01BC0122E03D
:101E000030E089EE96E00E94012F65E073E089EEF4
:101E100096E00E94832D6FE573E089EE96E00E94C4
:101E20006F2D89EE96E00E94142960E086E10C9403
:101E3000BD2561E086E10E94BD2567E073E089EE83
:101E400096E00E94832D20E030E040E251E4609172
:101E500023027091240280912502909126020E9413
:101E6000CD30AB01BC0122E030E089EE96E00E946B
:101E7000012F4091C5055091C6056091C70570912D
:101E8000C80522E030E089EE96E00E94012F89EE3D
:101E900096E00E94142960E086E10C94BD2561E083
:101EA00088E00C94852580917D05882339F0109277
:101EB0007D050E94630D81E080937D051092790578
:101EC00010927A0510927B0510927C0508950F936D
:101ED0001F9361E08CE20E9485250E946726609333
:101EE000C9057093CA058093CB059093CC0560918A
:101EF000270270912802882777FD8095982F0E94ED
:101F000019308B019C0140E050E0BA018AE895E06D
:101F10000E94442361E070E08AE895E01F910F91F0
:101F20000C9408240E94E72481E00E940B2584E0A1
:101F30000E94062561E089E00E9485258BE793E0F9
:101F40000E945A1464E670E080E090E00C94A326AE
:101F5000CF92DF92EF92FF920F931F9344E150E0F4
:101F600060E070E08AE493E00E94B533C0905603CD
:101F7000D0905703E0905803F0905903009152031A
:101F800010915303209154033091550340914E0317
:101F900050914F0360915003709151038AE895E08E
:101FA0000E94CF2160915C0370915D038AE895E007
:101FB0000E941E2480914A0390914B03A0914C03F0
:101FC000B0914D0380931F0290932002A0932102B1
:101FD000B09322021F910F91FF90EF90DF90CF906E
:101FE00008958AE895E00E94C52460934E0370939B
:101FF0004F0380935003909351038AE895E00E9429
:10200000CF246093520370935303809354039093AF
:1020100055038AE895E00E94D92460935603709393
:10202000570380935803909359038091C30590916F
:10203000C40590935D0380935C0380911F0290918F
:102040002002A0912102B091220280934A03909332
:102050004B03A0934C03B0934D03809127029091C2
:10206000280290935B0380935A0344E150E060E0C0
:1020700070E08AE493E00C94C5330F931F93CF93E1
:10208000DF9300D000D0CDB7DEB76FE572E08E01F0
:102090000F5F1F4FC8010E94A62789EE96E00E949D
:1020A000C128181619060CF0D1C061E087E10E9422
:1020B000BD2589EE96E00E94F02818164CF0C2C0AB
:1020C000682FC8010E94572889EE96E00E94F028E8
:1020D0008A30B1F760EB72E0C8010E948128882342
:1020E00019F16FE572E0C8010E94E12709C089EE8D
:1020F00096E00E94F028682FCE0101960E94572892
:1021000089EE96E00E94C1281816190684F3898189
:102110009A810E94903360931F02709320028093F3
:1021200021029093220286C069E073E0C8010E94F8
:102130008128811190C06BE073E0C8010E94812862
:10214000811189C091C0682FC8010E94572889EE6B
:1021500096E00E94F0288A30B1F789819A810E9426
:102160009033AB01BC018AE895E00E94802262C0F6
:102170006DE073E0C8010E948128811185C07CC098
:10218000682FC8010E94572889EE96E00E94F02827
:102190008A30B1F789819A810E949033AB01BC01EA
:1021A0008AE895E00E94B02245C06FE073E0C80164
:1021B0000E948128811179C070C0682FC8010E94D7
:1021C000572889EE96E00E94F0288A30B1F789817D
:1021D0009A810E949033AB01BC018AE895E00E948D
:1021E000FA2228C061E173E0C8010E9481288111B0
:1021F0006EC064C0682FC8010E94572889EE96E01F
:102200000E94F0288A30B1F763E173E0C8010E94B0
:1022100081280E94630D0EC00E94410D0BC065E134
:1022200073E0CE0101960E948128882319F080E096
:102230000E94490D0E94F10F6FE572E089EE96E071
:102240000E94832D60E087E10E94BD25CE010196AA
:102250000E94352745C06FE572E08E010F5F1F4F6A
:10226000C8010E94E12773CF6AE173E0C8010E94B0
:102270008128811109C07CCF6CE173E0C8010E9404
:102280008128811112C091CF6FE572E08E010F5F3E
:102290001F4FC8010E94E12777CF6EE173E0C801AC
:1022A0000E948128811113C09DCF6FE572E08E01DD
:1022B0000F5F1F4FC8010E94E12783CF60E273E0E8
:1022C000CE0101960E9481288111A6CFA8CF6FE58B
:1022D00072E08E010F5F1F4FC8010E94E1278ECF71
:1022E00026960FB6F894DEBF0FBECDBFDF91CF911B
:1022F0001F910F9108950E94A80F40E052EC61E0F9
:1023000070E089EE96E00E94462B0E94670F0E94C3
:10231000530F0E94920F0E944F0F61E086E10E94CE
:10232000852561E087E10C948525CF92DF92EF92BD
:10233000FF926B017C0120910A0230910B024091C7
:102340000C0250910D020E94C930181634F4FF900F
:10235000EF90DF90CF900C94410D209106023091C8
:1023600007024091080250910902C701B6010E947C
:102370007A2F87FDECCF80915E03882339F080E0CF
:10238000FF90EF90DF90CF900C94490DFF90EF906D
:10239000DF90CF900895CF92DF92EF92FF920F934C
:1023A0001F93CF93DF9380910A06811107C081E0CC
:1023B00080930A0681ED95E00E94E61D81ED95E08F
:1023C0000E94231E0E946726609377037093780310
:1023D0008093790390937A038FE096E090937D0346
:1023E00080937C03BC018BE793E00E946D14809185
:1023F0001106811165C1C0917503D09176032196B4
:10240000D0937603C093750360910F067091100608
:1024100080E090E00E9417306093690370936A0334
:1024200080936B0390936C0320E030E040E05DE329
:102430000E94CD3025E733E940E853E40E94152F90
:10244000FB01462F5F2F682F792F40936D03509328
:102450006E0360936F03709370032091710330914A
:1024600072034091730350917403BF010E94162FB1
:102470007B018C01862F9F2DA02FB12F809371039C
:1024800090937203A0937303B0937403BE018827E3
:1024900077FD8095982F0E9419309B01AC016E2D1D
:1024A0007F2D802F912F0E947E2F9B01462F532F2F
:1024B000682F792F409365035093660360936703F9
:1024C00070936803622F732F0E94951180916503AA
:1024D00090916603A0916703B091680380932302F3
:1024E00090932402A0932502B093260280917D054B
:1024F000882309F44BC08EE793E00E9412168111E5
:1025000010927D0580917D05811144C08EE793E096
:102510000E94EC1860931A0270931B0280931C02B5
:1025200090931D028EE793E00E94041960931602B7
:102530007093170280931802909319028EE793E02C
:102540000E9429196B017C016093860570938705B1
:1025500080938805909389050091160210911702C7
:10256000209118023091190240911A0250911B02D9
:1025700060911C0270911D028AE895E00E94CF21B3
:1025800080E00E94530D0E94F10F04C08AE895E09C
:102590000E9490200E9467260091C9051091CA05EB
:1025A0002091CB053091CC05C0902702D090280215
:1025B000EE24D7FCE094FE2C601B710B820B930B76
:1025C000C616D706E806F90660F40C0D1D1D2E1D73
:1025D0003F1D0093C9051093CA052093CB05309386
:1025E000CC05C090C505D090C605E090C705F09019
:1025F000C8050E9467260091C9051091CA0520915F
:10260000CB053091CC05601B710B820B930B0E94A4
:1026100017309B01AC01C701B6010E94C9301816E2
:102620000CF093C020E030E04AE754E46091C50527
:102630007091C6058091C7059091C8050E94C93068
:1026400018160CF47AC081C06091750370917603FE
:1026500080910E0290910F02861797078CF58827BC
:1026600077FD8095982F0E9419309B01AC016091F5
:1026700071037091720380917303909174030E94AF
:102680007E2F9B01462F532F682F792F4093710384
:1026900050937203609373037093740310927603E4
:1026A00010927503622F732F0E94AA0D0E94190FBA
:1026B00010927103109272031092730310927403BC
:1026C0000E943D100E9467260091790510917A05BD
:1026D00020917B0530917C050617170728073907DD
:1026E000B0F40E94680E8091790590917A05A091CE
:1026F0007B05B0917C058C509E4FAF4FBF4F8093B0
:10270000790590937A05A0937B05B0937C050E9490
:10271000672620E23EE440E050E00E943031672B23
:10272000682B692BE9F4DF91CF911F910F91FF90F6
:10273000EF90DF90CF900C94F10F61E273E08FE5A2
:1027400093E00E94E12761E007C066E173E08FE556
:1027500093E00E94E12760E08CE20E94BD2574CFE7
:10276000DF91CF911F910F91FF90EF90DF90CF906D
:102770000895AF92BF92CF92DF92EF92FF920F93A4
:102780001F931092D0051092CF0580E393E09093B1
:10279000CE058093CD05CC24CA94EE24EA940CE0B7
:1027A0002BE04DE069E272E08DEC95E00E943C2068
:1027B00088E293E09093CE058093CD058091C40587
:1027C0008F938091C3058F931F921F921F921F9228
:1027D00033ECA32E35EEB32E39E4C32E34E4D32EDE
:1027E00013E4E12E11EDF12E07E916E42FE132E0BA
:1027F00045EC55E063E272E08AE895E00E945A24D5
:1028000080912702909128020F900F900F900F90C7
:102810000F900F9097FD0196BC01759567958827DD
:1028200077FD8095982F0E941930609382057093F0
:102830008305809384059093850560937E0570934E
:102840007F05809380059093810545EC55E063E218
:1028500072E08EE793E00E947B1969E08BE793E0DA
:102860000E9454140E946726609377037093780344
:102870008093790390937A036FE572E08FE593E09C
:102880001F910F91FF90EF90DF90CF90BF90AF908E
:102890000C94A6278FE593E00C9435278EBD0DB4DC
:1028A00007FEFDCF8EB50895FC01862F608361E0A1
:1028B0000C94BD25CF93DF93EC0160E088810E94EA
:1028C000BD2580E80E944E1482EC0E944E1461E007
:1028D0008881DF91CF910C94BD25CF92DF92EF924A
:1028E000FF920F931F93CF93DF938C01EB0160E076
:1028F000FC0180810E94BD2580E00E944E1480E092
:102900000E944E148B8380E00E944E14F82EE12C1E
:1029100080E00E944E146701C82AC60196958795EB
:102920009983888380E00E944E14F82EE12C80E089
:102930000E944E149701282BC901969587959D8377
:102940008C8380E00E944E14F82EE12C80E00E94DF
:102950004E14E82AFF82EE8280E00E944E148A83A1
:1029600061E0F80180810E94BD25CD2819F08A819F
:10297000882359F0C801DF91CF911F910F91FF90EB
:10298000EF90DF90CF900C945A14DF91CF911F916C
:102990000F91FF90EF90DF90CF9008953F924F926C
:1029A0005F926F927F928F929F92AF92BF92CF92DF
:1029B000DF92EF92FF920F931F93CF93DF9300D09C
:1029C0001F921F92CDB7DEB78C01562E19821A8244
:1029D0001B821C821D8261E0852D0E94852560E09E
:1029E000852D0E94BD2562E170E080E090E00E94AC
:1029F000A32661E0852D0E94BD2588E290E00E941B
:102A0000C92660E0852D0E94852571E1E72E77E2D9
:102A1000F72E07C081E0E81AF10819F42EEF3FEF16
:102A200074C0852D0E94F425892BA1F361E1E62E67
:102A300067E2F62E04C0E1E0EE1AF10879F3852D85
:102A40000E94F4250197B9F338E2A32EB12C312C62
:102A500047E0442E88248394912C05C0F1E0EF1ABE
:102A6000F10829F4DBCF21E1E22E27E2F22E852DB9
:102A70000E94F425892B91F30E9479266B017C0139
:102A800091E1692E97E2792E05C081E0681A7108FC
:102A900009F4C4CF852D0E94F4250197B1F30E945B
:102AA00079266C197D098E099F09693271058105A6
:102AB000910578F0E1E0F0E0EC0FFD1FE30DF11D72
:102AC000C401042C01C0880F0A94EAF79081982B66
:102AD0009083411004C0339487E0482E01C04A948B
:102AE000E1E0AE1AB10809F0BECF8981F801808318
:102AF00011829B8192831382890F9D81981719F00F
:102B00002FEF3FEF02C020E030E0C9010F900F909F
:102B10000F900F900F90DF91CF911F910F91FF9029
:102B2000EF90DF90CF90BF90AF909F908F907F906D
:102B30006F905F904F903F900895FC01108A089528
:102B4000CF92DF92EF92FF920F931F93CF93DF9379
:102B5000EC01FC01E151FE4F80819181A281B381A2
:102B6000EC81FD8180839183A283B3838E010D501C
:102B70001E4FFE01E551FE4F60817181828193817C
:102B80009B01AC010E94162F20E030E040E850E4A9
:102B90000E94CD306B017C01FE01ED51FE4FDE0144
:102BA000A951BE4F2D913D914D915C9160817181F4
:102BB000828193810E94152F20ED3FE049E450E48B
:102BC0000E94CD309B01AC01C701B6010E947E2F4F
:102BD000F80160837183828393838E0109501E4FB5
:102BE00069897A898B899C89CD88DE88EF88F88C01
:102BF0006C197D098E099F090E94173020E030E092
:102C00004AE754E40E947E2FF80160837183828337
:102C10009383DF91CF911F910F91FF90EF90DF9001
:102C2000CF9008953F924F925F926F927F928F92D2
:102C30009F92AF92BF92CF92DF92EF92FF920F934B
:102C40001F93CF93DF9300D000D0CDB7DEB79E8324
:102C50008D83FC01EE51FE4F1082FC01E152FE4FCC
:102C6000808191810A9774F0AD81BE8150968C91DC
:102C70005097882339F050961C925097CD010E94AE
:102C8000A01587C20E94672669837A838B839C8301
:102C9000ED81FE81818D928DA38DB48D49815A8104
:102CA0006B817C81481B590B6A0B7B0B858D968D44
:102CB000AA2797FDA095BA2F481759076A077B07DF
:102CC00008F46FC289819A81AB81BC81ED81FE815C
:102CD000818F928FA38FB48FDF010280F381E02D6B
:102CE000C080D180E280F380FD01EE51FE4F81E093
:102CF000808350969C9150978D010D511E4F9111DC
:102D000042C092961C921E929197FD01E152FE4F95
:102D100011821082FD01EF51FE4F1082F801C08236
:102D2000D182E282F382FD01E951FE4FC082D1825D
:102D3000E282F3821696CD92DD92ED92FC92199783
:102D400050968C93509714960D911C911597F801FD
:102D50006081718182819381FD01E151FE4F608329
:102D6000718382839383FD01E551FE4F2081318180
:102D7000428153810E94162FD8016D937D938D93CC
:102D80009C93139728C0F80120813181428153819F
:102D9000C701B6010E94C930181634F4D801CD928B
:102DA000DD92ED92FC921397AD80BE80B9E1AB1A33
:102DB000BEEFBB0AF5012081318142815381C701F9
:102DC000B6010E947A2F87FF06C0D501CD92DD9211
:102DD000ED92FC921397ED81FE8186809780A0840E
:102DE000B1844284538464847584A3019201C50133
:102DF000B4010E94162F9B01AC01C701B6010E94CD
:102E0000C9301816B4F4AD81BE8114960D911C9191
:102E10001597FD01E151FE4FA551BE4F2D913D91FA
:102E20004D915C9160817181828193810E94152F07
:102E300023C0A3019201C501B4010E94152F9B017B
:102E4000AC01C701B6010E947A2F87FF1AC0AD817D
:102E5000BE8114960D911C911597FD01E151FE4F15
:102E6000A551BE4F2D913D914D915C916081718135
:102E7000828193810E94162FF8016083718382837F
:102E8000938381E0AD81BE818C9311968C931197D1
:102E90005F968D909C909097840101501109540188
:102EA000AA0CBB1CAA0CBB1CB3E2AB0EB11CED817F
:102EB000FE81AE0EBF1E36C0D5017E906E905E9034
:102EC0004E905D01ED81FE818081882371F0332475
:102ED0003394A3019201C701B6010E94C9301816AC
:102EE0000CF0312CAD81BE813C92ED81FE8181815F
:102EF000882369F0A3019201C701B6010E947A2FCD
:102F0000881F8827881FAD81BE8111968C93F5019B
:102F100080819181A281B38184839583A683B783C5
:102F20000150110917FFC8CFAD81BE819396CD9294
:102F3000DD92ED92FC929697B9E08B1691040CF419
:102F400030C1ED81FE8180818823D9F181A192A1D8
:102F5000892B21F481E090E092A381A3AD81BE8111
:102F600091968D919C9192970196A1F481E090E0C9
:102F7000ED81FE8192A381A3EF51FE4F81E080831A
:102F8000ED81FE8181899289A389B489858B968B95
:102F9000A78BB08F89819A81AB81BC81ED81FE8145
:102FA000818B928BA38BB48BE152FE4F80819181F8
:102FB000880F991F880F991F2D813E81820F931FC3
:102FC0003CC0AD81BE8111968C9111978823E1F1AF
:102FD000FD0181A192A1892B21F48FEF9FEF92A394
:102FE00081A3AD81BE8191968D919C91929701971D
:102FF00099F48FEF9FEF92969C938E939197FD019A
:10300000E152FE4F80819181019691838083FD0181
:10301000EF51FE4F81E08083ED81FE81E152FE4F52
:10302000808191818A3091057CF4880F991F880FE7
:10303000991FED81FE818E0F9F1FFC01E954FE4F09
:10304000C082D182E282F382ED81FE81EF51FE4F98
:103050008081882309F4A0C0ED81FE81E152FE4FFA
:1030600000811181033011050CF496C0C80102974C
:10307000880F991F880F991F2D813E81820F931F02
:10308000FC01E954FE4F4080518062807380C8018A
:103090000197880F991F880F991F820F931FFC01BA
:1030A000E954FE4FA3019201608171818281938175
:1030B0000E94152F862E972EA82EB92E20E030E0E4
:1030C000A9010E94C930181624F0B7FAB094B7F8D5
:1030D000B09403501109000F111F000F111F8D81B3
:1030E0009E81080F191FF801E954FE4F208131819C
:1030F00042815381C301B2010E94152FB62FA72F21
:10310000462F572F682F792F2A013B0120E030E00E
:10311000A9016B2F7A2F0E94C930181624F077FA74
:10312000709477F87094A3019201C501B4010E94D4
:10313000162F20E030E040E05FE30E94CD306B01CD
:103140007C01ED81FE81ED51FE4FAD81BE81A95123
:10315000BE4F2D913D914D915C9160817181828135
:1031600093810E94152F2DEC3CEC4CE45DE30E9412
:10317000CD309B01AC01C701B6010E947A2F87FFB9
:103180000BC08D819E810E94A015AD81BE8150969D
:103190001C9221E030E007C0ED81FE81EF51FE4F2F
:1031A000108220E030E0C90126960FB6F894DEBF09
:1031B0000FBECDBFDF91CF911F910F91FF90EF9088
:1031C000DF90CF90BF90AF909F908F907F906F9047
:1031D0005F904F903F900895FC0126853785ED5014
:1031E000FE4F2130310529F42AE939E949E15FE34D
:1031F00004C02DEC3CEC4CEC5EE36081718182817B
:1032000093810E94CD300895CF93DF93FC012685F2
:103210003785ED50FE4FEC01C950DE4F21303105AE
:1032200029F42AE939E949E95FE304C02FE832ECDF
:1032300045EF5EE360817181828193810E94CD3090
:10324000288139814A815B810E947E2FDF91CF9155
:103250000895CF93DF93EC018E859F850197B1F49C
:10326000FE01ED50FE4F2AE939E949E95DE360814D
:103270007181828193810E94CD30C950DE4F2881B7
:1032800039814A815B810E94CD3004C060E070E0EA
:1032900080E090E0DF91CF91089585519E4FFC0131
:1032A00040835183628373830895FC01428753876F
:1032B000648775870895FC011616170624F4693192
:1032C000710564F402C061E070E0660F771F660F5D
:1032D000771F70A3678F8AEF90E00AC084E690E0C2
:1032E00090A3878F2AE0269FC001279F900D11246D
:1032F000968F858F0895CF93DF93EC017B836A834C
:103300005D834C831F861E8680E090E0A0E0BFE3D3
:103310008A879B87AC87BD87188AFE01E551FE4FDF
:1033200040E050E060EF71E4408351836283738337
:103330006AE070E0CE010E945B190E946726698FE7
:103340007A8F8B8F9C8FDF91CF910895FC01E60FD0
:10335000F11D8491382F20E03196E4912E0F311D1C
:10336000C9010895FC01849108950E94B219833027
:1033700030F4E82FF0E0EC5CFC4F8081089583E0AE
:10338000089580E0089566E00C94A61968E00C9416
:10339000A6190A96FC01849108950B96FC0184916C
:1033A0000895AF92BF92CF92DF92EF92FF920F9368
:1033B0001F93CF93DF93EC01F62E0C811D81C80182
:1033C0000E94B219D82EC8010E94B519A82E21E07A
:1033D000D21619F0CC24CA9402C02FE0C22EC80124
:1033E0000E94C919E82EC8010E94CD19B82EC80143
:1033F0000E94C619E0E6EF1540F4009731F09801FD
:10340000280F391F91E6E92E10C0C8010E94C31988
:10341000F0E49801FF1538F4009729F0280F391FC0
:1034200081E4E82E02C02F5E3F4FBF1408F449C06C
:10343000BE1408F446C04A2D50E0F90184918F3F34
:1034400019F42F5F3F4F39C0EF102FC0DD2019F066
:10345000F2E0DF1213C0F90184918B8B3196E49175
:10346000EC8BF9013396E491E88BF9013496E49101
:10347000E98BF9013596E491EA8B2AC0982F9F7069
:1034800092509A8B82958F70898BF9013196E491D5
:103490008E2F8F708C8BE295EF70EB8BF90132964B
:1034A000E491E295EF70E88B13C0F9013296E49154
:1034B000EC212E0F311D240F351FEB1411F0E39476
:1034C000BCCF188A1B8A1C8A198A1A8A20E030E02D
:1034D000C901DF91CF911F910F91FF90EF90DF9085
:1034E000CF90BF90AF9008954F925F927F928F924E
:1034F0009F92AF92BF92CF92DF92EF92FF920F9383
:103500001F93CF93DF931F92CDB7DEB72C01162FF9
:10351000742E622F0E94D1196C01009709F43FC0EC
:10352000F201848195810E94B519F82EF2018388F9
:1035300004899188910E8289781A172D101B282DE5
:10354000412F692DC2010E94A01E811101C024C01B
:10355000CF0CD11CF7E08F0E869486948694A82C0D
:10356000B12C15C0F701049120E0412F632FC20157
:1035700039830E94371EFFEFEF1AFF0A3981385F47
:103580008E2D8C19881570F3CA0CDB1C1F5F171564
:1035900019F0392D7601F4CFF201808901C080E065
:1035A0000F90DF91CF911F910F91FF90EF90DF90DF
:1035B000CF90BF90AF909F908F907F905F904F90F3
:1035C00008950F931F93CF93DF9300D0CDB7DEB74D
:1035D0008C01DC015596ED91FC9156972B834A8323
:1035E000698319954A81480F2B816981C8010F9021
:1035F0000F900F90DF91CF911F910F910C94741A3F
:10360000DC0114968D919C911597009709F43FC0A9
:1036100057962C915797FC01211108C03596E491DB
:103620005896EC935897FC013C9611C0213041F418
:103630003F96E4915896EC935897FC01709607C01A
:103640003D96E4915896EC935897FC013E968491F0
:1036500059968C93599758968C915897992787FD2E
:10366000909559962C915997821B910927FD939516
:103670005A962C915A97203441F0829FC001112410
:1036800056E0969587955A95E1F75B968C93089549
:1036900021EC39E1FC01368B258B0895CF93DF9324
:1036A000EC018C819D818617970749F07D836C839F
:1036B000CE010E94001B81EC99E19E8B8D8BDF91E6
:1036C000CF9108959F92AF92BF92CF92DF92EF92E7
:1036D000FF920F931F93CF93DF938C01EB01A42EE6
:1036E00069018AE0481721F0E5E14E1354C00BC090
:1036F00043E0C8010E94921F44EE50E0BE01C801A1
:103700000E94D11F48C0EA80FB8040E0C8010E94AF
:10371000B81F41E0BE01C8010E949B1FF701B280A3
:10372000E680F78098E0992E9B0C40E0BE01C8012E
:103730000E94B81F4EE3BE01C8010E94C11FFFE1F5
:103740004B2DFB1538F04068BE01C8010E94C11F17
:1037500040E807C040524068BE01C8010E94C11F36
:1037600048E8BE01C8010E94C11F41E0BE01C80176
:103770000E94B81F970140E1BE01C8010E94CA1F04
:1037800080E1E80EF11CB394B910CFCF40E0BE0148
:10379000C8010E949B1F96014A2DBE01C801DF91FE
:1037A000CF911F910F91FF90EF90DF90CF90BF903E
:1037B000AF909F900C94481F90E0FC01ED5DF74E98
:1037C000249130E0220F331F2D57374EF9012591F8
:1037D000349120939A0630939B0670E0FB01ED5DD7
:1037E000F74E249130E0220F331F2D57374EF90149
:1037F0002591349120939C0630939D06FC01E35261
:10380000F84E849180939E06FB01E352F84E64913A
:1038100060939F0660956093A00680958093A106B3
:10382000089520919E069091A10650919F06609167
:10383000A006A0919A06B0919B06E0919C06F0919B
:103840009D063FB730934709F8943C91322B4C9139
:10385000492398E087FF02C03C9301C04C93880F36
:103860002081262320832081252B2083915091F7CE
:10387000809147098FBF0895CF93C62F811102C051
:1038800088EF03C0813019F48AEF0E94111C8C2F3D
:10389000807F0E94111C8C2F8295807F0E94111CBA
:1038A0000E94501E0E94501E0E94501ECF910C94E8
:1038B000501EFF920F931F93CF93DF93EC01F42ED2
:1038C0008901643039F140F4623009F46FC040F589
:1038D000613009F06CC007C06630C1F190F167300B
:1038E00009F065C060C00E947D1E40E062E0CE012C
:1038F0000E94731E41E064E0CE010E94731E40E00E
:1039000065E0CE010E94731E6FA188A50E94DC1B9A
:103910001EA24DC08BA18F3F09F449C060E004C0D6
:10392000411106C040E062E0CE010E94731E3FC01C
:1039300041E062E00E94731E6FA188A50E94DC1B1B
:1039400036C0642F8EA10E943C1C31C08EA1811113
:1039500002C088EF03C0813099F48AEF0E94111CE5
:103960000FC0F8018081807F0E94111CF8018191B5
:103970008F018295807F0E94111CFA940E94501E34
:10398000F110EFCF0E94501E0E94501E0E94501E48
:103990000E94501E0CC0F80164918EA10E943C1C34
:1039A0000F5F1F4FFA94F110F6CF01C04EA381E0D4
:1039B000DF91CF911F910F91FF9008951F93CF93A7
:1039C000DF93EC011D821C821F821E82198681E01A
:1039D000888782E28A871F861E8680E090E02FEF2C
:1039E000FE01E80FF91F23A301968E309105C1F760
:1039F00011E018A3CE010E94481B1F8B188E198E50
:103A000080E48A8F1B8E85E59EE19AAB89ABDF91BE
:103A1000CF911F910895DB01ED91FC911994EF92E4
:103A2000FF921F93CF93DF931F921F92CDB7DEB704
:103A30007C01DC01D196ED91FC91D29782E0698303
:103A40007A83199520E030E04AE069817A81C701E4
:103A50000E940B1D182FD701D196ED91FC91D297A2
:103A600083E01995D701D196ED91FC91D29780E032
:103A70001995812F0F900F90DF91CF911F91FF909B
:103A8000EF9008950F931F93CF93DF93EC018B0179
:103A9000E9A9FAA982E01995E9A9FAA981E019959D
:103AA00020E030E044E1B801CE010E940B1D9E01F0
:103AB0002D5C3F4F47E1B801CE010E940B1DE9A9E3
:103AC000FAA980E0DF91CF911F910F911994FF9295
:103AD0000F931F93CF93DF93EC018B01E9A9FAA910
:103AE00082E01995E9A9FAA981E0199520E030E072
:103AF00045E1B801CE010E940B1DF82E882341F04C
:103B00009E012D5C3F4F47E1B801CE010E940B1D85
:103B1000E9A9FAA980E019958F2DDF91CF911F9126
:103B20000F91FF900895EF920F93FC01448F258F22
:103B3000078FE68E9C01245E3F4F4BE30F91EF9081
:103B40000C940B1DCF93DF931F92CDB7DEB79E0170
:103B50002F5F3F4F46E40E940B1D89810F90DF913C
:103B6000CF910895CF93DF931F92CDB7DEB79E011B
:103B70002F5F3F4F47E40E940B1D89810F90DF911B
:103B8000CF91089520E030E048E40C940B1DCF93D2
:103B9000DF93EC016A817B810E94A21D88836A8188
:103BA0007B81CE010E94B21D89836A817B81CE0117
:103BB0000E94C21D8B879E012D5C3F4F6A817B81D5
:103BC00047E1CE01DF91CF910C940B1DCF93DF9392
:103BD000EC016A817B810E940F1D882329F0CE01B0
:103BE0000E94C71D81E001C080E0DF91CF91089560
:103BF0008F929F92AF92BF92CF92EF920F93CF93FB
:103C0000DF931F921F92CDB7DEB74C015B012A8371
:103C100049830E94DE1CF401B382A282498147A33A
:103C20002A8120A705A3E4A2C3A2C4010F900F908C
:103C3000DF91CF910F91EF90CF90BF90AF909F9079
:103C40008F900C94E61DFC01628173810C94421DDF
:103C5000CF93DF93EC01EE85FF85309709F019953E
:103C60006A817B81CE01DF91CF910C94671DEF9229
:103C70000F93362FFC0162817381E02E022F242FD7
:103C8000432F0E94931D0F91EF9008952EE93FE07E
:103C900004C0F9013197F1F701970097D1F7089522
:103CA00088E290E00197F1F708950895FC011282EF
:103CB00080818150838314820895FC012081828158
:103CC000820F82839181891760F484818F5F84835E
:103CD0008381820F891710F0892F8150838381E0BF
:103CE000089580E00895860F911DFC0183A18F3F08
:103CF00019F0642F0C94BD250895EF92FF920F9355
:103D00001F93CF93DF937C01C0E0D0E087010C0FBD
:103D10001D1FF80183A18F3F41F061E00E948525BE
:103D200061E0F80183A10E94BD252196CD30D10527
:103D300069F7DF91CF911F910F91FF90EF90089558
:103D40000F93FC01842F8150800F94A936A934175A
:103D500018F0891798F402C0891770F0841770F072
:103D60000BC0981738F402C0981730F081E096170E
:103D700068F002C081E00AC080E008C0962F915030
:103D8000920F83A925A9261760F7EECF0F9108950A
:103D9000DC011696ED91FC91179715968C9115976D
:103DA00086958695869512969C91491B489F402D35
:103DB0001124E40FF11D362F377080E890E002C027
:103DC000959587953A95E2F7669566956695E60F1F
:103DD000F11D9081222311F0892B02C08095892347
:103DE00080830895FB014181DC0112962C9112978A
:103DF000421768F013962C911397241740F06081B6
:103E000015962C91621718F424810C94C81E0895FD
:103E1000CF92DF92FF920F931F93CF93DF931F9266
:103E20001F92CDB7DEB78C016B01FB01F28083815D
:103E3000813039F070F0823039F0833041F020E089
:103E400001C021E030E007C020E03FEF04C02FEFC9
:103E5000F9CF20E031E0F7FE08C0B601C8012983A0
:103E60003A830E94F21E3A812981F6018081830FF4
:103E700080838181820F8183FF0C69F70F900F90FF
:103E8000DF91CF911F910F91FF90DF90CF90089518
:103E90000F931F93CF93DF938901FB01C281D381DD
:103EA0004233C9F038F4453111F1473149F1443119
:103EB00089F516C0463449F1473449F14B3351F581
:103EC000B901CE010E947F20882321F1B801CE01E3
:103ED0000E94081F1FC0B901CE010E94F21E1AC025
:103EE000CE010E944A20CE010E94561E13C0CE0170
:103EF0000E945D1E882381F0CE010E944A200AC0E4
:103F0000B901CE010E946F2005C08D8101C0898159
:103F1000F801808381E001C080E0DF91CF911F91A3
:103F20000F910895DB011496ED91FC91159720E017
:103F300030E061E01994DB011496ED91FC91159746
:103F400020E030E063E01994DB011496ED91FC91E0
:103F5000159720E030E040E064E01994DB0114960E
:103F6000ED91FC91159720E030E041E064E0199478
:103F7000DB011496ED91FC91159720E030E062E0B2
:103F80001994DB011496ED91FC91159720E030E037
:103F900065E01994DB011496ED91FC91159766E0AC
:103FA0001994AF92BF92DF92EF92FF920F931F93FB
:103FB000CF93DF931F92CDB7DEB75C018B017A01FF
:103FC00080E0F701449181110BC04F3F09F441C0DB
:103FD000B801C5010E94C11F882309F43FC031C048
:103FE0004F3F09F4F5CF4E3FD9F1403F50F5403EE9
:103FF00030F04F70B801C5010E94B81F22C0403D8B
:1040000030F04F70B801C5010E949B1F1AC0403CA0
:10401000D0F0B801C50149830E94A41F4981D42E64
:10402000D29480EFD822D394D3948D2D90E00E9427
:10403000461EB801C5010E94AE1F8D2D90E00E9462
:10404000461E80E007C04E3BE0F747FDFACF842FC5
:10405000F5CF81E0FFEFEF1AFF0AB3CF80E001C098
:1040600081E00F90DF91CF911F910F91FF90EF9022
:10407000DF90BF90AF900895CF92EF920F93FC0125
:1040800013AE14AE15AE04960E94F81D0F91EF907A
:10409000CF900895DC011696ED91FC911797159637
:1040A0008C919F01280F311DC9011192E817F90762
:1040B000E1F70895FC0181E09381961708F480E010
:1040C00031E09281491708F430E021E0461708F00A
:1040D00020E0982F922B93238223892B0895DC01D3
:1040E000FB01108212968C911297818315968C9108
:1040F00015978150828313968C9183830895FB01D9
:1041000061812381213019F0233039F403C0462F17
:10411000485F04C0462F685001C0462F0C945A20B7
:104120002F923F924F925F926F927F928F929F92C7
:10413000AF92BF92CF92DF92EF92FF920F931F93B5
:10414000CF93DF93CDB7DEB72A970FB6F894DEBFD3
:104150000FBECDBF9A878987DC01D8968C918111DB
:1041600002C080E003C10E94672669837A838B8343
:104170009C83E985FA8580A191A1A2A1B3A149817F
:104180005A816B817C81481B590B6A0B7B0B84A580
:1041900095A5A6A5B7A5481759076A077B0708F391
:1041A000028CF38DE02DC080D180E280F380A98560
:1041B000BA855E96ED91FC915F97A70196016081AB
:1041C0007181828193810E94152F6D837E838F83FD
:1041D0009887E985FA8520893189428953890E9427
:1041E000CD30A985BA8594962D913D914D915C91E4
:1041F00097970E94162F1B012C01862F932DA42D1B
:10420000B52DE985FA8584A395A3A6A3B7A364A8D1
:1042100075A806A917A9262D372D402F512F622DDD
:10422000732D842D952D0E94C93018165CF4862DAF
:10423000972DA02FB12FE985FA8584A395A3A6A376
:10424000B7A318C0A985BA85D0968D909D90AD90E2
:10425000BC90D397A5019401622D732D842D952DCB
:104260000E947A2F87FF06C0E985FA8584A295A26D
:10427000A6A2B7A2A985BA851C962D913D914D9114
:104280005C911F97BD81AE81BF80A8846B2F7A2F70
:104290008B2D9A2D0E94CD30E985FA8524A135A178
:1042A00046A157A10E94162F4B015C01A985BA8532
:1042B00098962D913D914D915C919B97C701B601C8
:1042C0000E94152FE985FA85248935894689578901
:1042D0000E94CD309B01AC01C501B4010E94152F95
:1042E0004B015C01262D372D402F512F682D792D44
:1042F0008A2D9B2D0E94C9301816DCF0A985BA853D
:10430000D0966C90D097D1967C90D197D2960C9104
:10431000D297D3961C91262D372D402F512F682DE3
:10432000792D8A2D9B2D0E947A2F87FD02C03401A2
:104330008501A985BA855C96ED91FC915D97862DE6
:10434000972DA02FB12F80839183A283B383E9851A
:10435000FA85C0A6D1A6E2A6F3A689819A81AB818F
:10436000BC8180A391A3A2A3B3A381E02A960FB638
:10437000F894DEBF0FBECDBFDF91CF911F910F919B
:10438000FF90EF90DF90CF90BF90AF909F908F9075
:104390007F906F905F904F903F902F9008952F9255
:1043A0003F924F925F926F927F928F929F92AF92C5
:1043B000BF92CF92DF92EF92FF920F931F93CF9312
:1043C000DF93EC014A015B012801390120E030E074
:1043D000A901C501B4010E947A2F87FD7EC020E0AB
:1043E00030E0A901C301B2010E947A2F87FD75C098
:1043F00020E030E0A901C701B6010E947A2F87FDB5
:104400006CC088829982AA82BB824C825D826E8255
:104410007F82C886D986EA86FB866CA57DA58EA597
:104420009FA50E94173020E030E04AE754E40E9444
:104430007E2F1B018C018C869D86AE86BF86762FD3
:10444000272F332D402F512FC301B2010E94CD30B1
:104450002B013C01862F952DA62DB72D888B998B8E
:10446000AA8BBB8B222D332D402F512FC701B601B4
:104470000E947E2F7B018C01862F9F2DA02FB12FB4
:104480008C8B9D8BAE8BBF8B888D998D019729F579
:10449000A501940160E070E0CB010E94152F6C87AC
:1044A0007D878E879F87242D352D462D572D60E0E3
:1044B00070E0CB010E94152F688B798B8A8B9B8BC8
:1044C0002E2D3F2D402F512F60E070E0CB010E9438
:1044D000152F6C8B7D8B8E8B9F8BDF91CF911F91D6
:1044E0000F91FF90EF90DF90CF90BF90AF909F9093
:1044F0008F907F906F905F904F903F902F90089596
:10450000CF92DF92EF92FF92CF93DF93EC016A019B
:104510007B0120E030E0A901C701B6010E947A2F9B
:1045200087FD17C0C882D982EA82FB82CC86DD86ED
:10453000EE86FF86888D998D019759F4A701960123
:1045400060E070E0CB010E94152F6C877D878E871D
:104550009F87DF91CF91FF90EF90DF90CF900895EC
:10456000CF92DF92EF92FF92CF93DF93EC016A013B
:104570007B0120E030E0A901C701B6010E947A2F3B
:1045800087FD31C0CC82DD82EE82FF826CA57DA5E5
:104590008EA59FA50E94173020E030E04AE754E442
:1045A0000E947E2F9B01AC01C701B6010E94CD3055
:1045B000FB01462F5F2F682F792F488B598B6A8B11
:1045C0007B8B288D398D2130310569F42E2F3F2FBB
:1045D000482F592F60E070E0CB010E94152F688BA7
:1045E000798B8A8B9B8BDF91CF91FF90EF90DF903F
:1045F000CF900895CF92DF92EF92FF92CF93DF9307
:10460000EC016A017B0120E030E0A901C701B6019D
:104610000E947A2F87FD31C0C886D986EA86FB863C
:104620006CA57DA58EA59FA50E94173020E030E0E7
:104630004AE754E40E947E2F9B01AC01C701B601FA
:104640000E94CD30FB01462F5F2F682F792F4C8BB6
:104650005D8B6E8B7F8B288D398D2130310569F410
:104660002E2F3F2F482F592F60E070E0CB010E9482
:10467000152F6C8B7D8B8E8B9F8BDF91CF91FF9055
:10468000EF90DF90CF9008954F925F926F927F925C
:104690008F929F92AF92BF92CF92DF92EF92FF9252
:1046A0000F931F93CF93DF93EC016A017B012801E5
:1046B0003901A9019801C701B6010E94C93087FFDD
:1046C0004FC0C8AAD9AAEAAAFBAA4CAA5DAA6EAA98
:1046D0007FAA88AD882309F443C00C8D1D8DF80195
:1046E00080809180A280B380A3019201C501B401B2
:1046F0000E94C930181634F4F80140825182628257
:1047000073820DC0A7019601C501B4010E947A2FE2
:1047100087FF05C0F801C082D182E282F3824CA0FB
:104720005DA06EA07FA0CCA8DDA8EEA8FFA8A70181
:104730009601C301B2010E94C93018160CF40CC0D6
:10474000C8A8D9A8EAA8FBA8A7019601C301B2018D
:104750000E947A2F87FF04C0CCA2DDA2EEA2FFA2A6
:10476000DF91CF911F910F91FF90EF90DF90CF904D
:10477000BF90AF909F908F907F906F905F904F9081
:1047800008958F929F92AF92BF92CF92DF92EF9255
:10479000FF92CF93DF93EC01EC8DFD8DC080D18033
:1047A000E280F380CCA2DDA2EEA2FFA2EA8DFB8D17
:1047B00080819181A281B38188A799A7AAA7BBA76D
:1047C0008CA89DA8AEA8BFA8A5019401C701B601F9
:1047D0000E94C93018160CF40CC088A899A8AAA881
:1047E000BBA8A5019401C701B6010E947A2F87FFDB
:1047F00004C08CA29DA2AEA2BFA2DF91CF91FF9078
:10480000EF90DF90CF90BF90AF909F908F900895E2
:104810001F93CF93DF93EC0111E06130710509F034
:1048200010E088AD91E08927181303C0CE010E94E3
:10483000C12318AFDF91CF911F9108950F931F935C
:10484000CF93DF93EC018B0188AD882361F1888DD4
:10485000998D6817790739F12C853D854E855F85DF
:1048600060E070E0CB010E94152F6C877D878E87FA
:104870009F87288939894A895B8960E070E0CB018C
:104880000E94152F688B798B8A8B9B8B2C893D8995
:104890004E895F8960E070E0CB010E94152F6C8B20
:1048A0007D8B8E8B9F8B198F088FDF91CF911F91FE
:1048B0000F9108954F925F926F927F928F929F9285
:1048C000AF92BF92CF92DF92EF92FF920F931F931E
:1048D000CF93DF9300D01F92CDB7DEB74C012701F5
:1048E0003801A982BA82CB82DC82FC01558F448FC9
:1048F000738F628F378F268F10AE00E010E02FE7A6
:1049000033E440E050E0BA010E94442384E690E0A2
:10491000A0E0B0E0F40184A795A7A6A7B7A76C8D87
:104920007D8DC4010E941E24C88CD98CEA8CFB8C1E
:1049300009811A812B813C81B301A201C4010E942B
:10494000CF210E946726F40144A455A466A477A44D
:10495000641975098609970960A371A382A393A3BB
:104960000F900F900F900F90DF91CF911F910F91AB
:10497000FF90EF90DF90CF90BF90AF909F908F907F
:104980007F906F905F904F900895FC01508141811E
:1049900032812381652F742F832F922F0895FC017C
:1049A0005481458136812781652F742F832F922F63
:1049B0000895FC015085418532852385652F742F2C
:1049C000832F922F0895FC0180AD90E0089561E05F
:1049D00084E30E94852561E083E30E94852561E0F0
:1049E00085E30E94852560E084E30E94BD2560E0A8
:1049F00083E30E94BD2561E085E30E94BD258CB55F
:104A000080618CBD8CB580648CBD08959CB5937F0E
:104A1000982B9CBD08952CB5982F93702C7F922BCA
:104A20009CBD9DB582FB882780F99E7F982B9DBDFC
:104A30000895893009F443C088F4843029F138F4AA
:104A4000823059F1E8F4813009F05EC023C087302C
:104A500061F188F5863009F057C023C08D3009F424
:104A600040C020F48B30A9F1C0F52DC0803109F48D
:104A700042C0813109F443C08F3009F045C037C0CE
:104A8000809180008F7703C0809180008F7D80931C
:104A90008000089584B58F7702C084B58F7D84BD72
:104AA00008958091B0008F7703C08091B0008F7D12
:104AB0008093B0000895809190008F7707C0809117
:104AC00090008F7D03C080919000877F809390003D
:104AD00008958091A0008F7707C08091A0008F7DFE
:104AE00003C08091A000877F8093A00008958091EB
:104AF00020018F7707C0809120018F7D03C08091B6
:104B00002001877F809320010895CF93DF9390E069
:104B1000FC01E352F84E4491FC01ED5DF74E8491A7
:104B2000882341F190E0880F991FFC01E356F74E6E
:104B300025913491D9018D57974EFC01859194911F
:104B4000C82FD92F9FB7F8948C91611106C040955A
:104B500084238C938881842308C0623041F4242FFD
:104B6000209582238C938881842B888302C0842B98
:104B70008C939FBFDF91CF9108950F931F93CF9395
:104B8000DF931F92CDB7DEB7282F30E0F901E95649
:104B9000F84E8491F901E352F84E1491F901ED5D5C
:104BA000F74E04910023D1F0882321F069830E94FD
:104BB00019256981E02FF0E0EE0FFF1FED57F74E4A
:104BC00085919491DC019FB7F8948C91611103C099
:104BD0001095812301C0812B8C939FBF0F90DF9193
:104BE000CF911F910F910895CF93DF93282F30E03D
:104BF000F901E956F84E8491F901E352F84ED49147
:104C0000F901ED5DF74EC491CC2389F081110E942A
:104C10001925EC2FF0E0EE0FFF1FE759F74E8591B5
:104C20009491DC018C918D2321E030E011F420E09F
:104C300030E0C901DF91CF9108951F920F920FB616
:104C40000F9211242F933F938F939F93AF93BF9312
:104C50008091A2069091A306A091A406B091A5060A
:104C60003091AA06232F2D5F2D3720F40196A11D28
:104C7000B11D05C0232F2A570296A11DB11D2093F7
:104C8000AA068093A2069093A306A093A406B093CD
:104C9000A5068091A6069091A706A091A806B091BE
:104CA000A9060196A11DB11D8093A6069093A706A3
:104CB000A093A806B093A906BF91AF919F918F9141
:104CC0003F912F910F900FBE0F901F9018950F934B
:104CD0001F938FB7F8940091A2061091A30620911C
:104CE000A4063091A5068FBFB801C9011F910F918D
:104CF00008950F931F939FB7F8940091A606109103
:104D0000A7062091A8063091A90686B5A89B06C0E3
:104D10008F3F21F00F5F1F4F2F4F3F4F9FBF322F0D
:104D2000212F102F0027080F111D211D311D42E0DA
:104D3000000F111F221F331F4A95D1F7B801C90177
:104D40001F910F910895CF92DF92EF92FF92CF9330
:104D5000DF936B017C010E947926EB010EC00E945B
:104D600079266C1B7D0B683E734038F081E0C81AD1
:104D7000D108E108F108C851DC4FC114D104E104A5
:104D8000F10469F7DF91CF91FF90EF90DF90CF9022
:104D90000895019739F0880F991F880F991F02977E
:104DA0000197F1F70895789484B5826084BD84B545
:104DB000816084BD85B5826085BD85B5816085BD16
:104DC000EEE6F0E0808181608083E1E8F0E010822F
:104DD000808182608083808181608083E0E8F0E070
:104DE000808181608083E1EBF0E08081846080835A
:104DF000E0EBF0E0808181608083E1E9F0E0808198
:104E000082608083808181608083E0E9F0E080813E
:104E100081608083E1EAF0E080818260808380812C
:104E200081608083E0EAF0E0808181608083E1E25C
:104E3000F1E0808182608083808181608083E0E214
:104E4000F1E0808181608083EAE7F0E08081846026
:104E50008083808182608083808181608083808183
:104E6000806880831092C1000895FC018081918147
:104E70000C941232CF93DF93EC01888199810097D3
:104E800011F00E941232198218821D821C821B822C
:104E90001A82DF91CF9108950F931F93CF93DF93E1
:104EA000EC018B016F5F7F4F888199810E94B03246
:104EB000009731F0998388831B830A8381E001C0C6
:104EC00080E0DF91CF911F910F910895CF93DF93F1
:104ED000EC0188819981892B31F08A819B81861729
:104EE000970708F00CC0CE010E944C27882349F098
:104EF0008C819D81892B19F4E881F981108281E0F0
:104F000001C080E0DF91CF910895EF92FF920F935F
:104F10001F93CF93DF93EC017B018A01BA010E94BA
:104F20006627811104C0CE010E943A2707C01D8365
:104F30000C83B701888199810E94AE33CE01DF9145
:104F4000CF911F910F91FF90EF900895DC01119682
:104F50001C921E9213961C921E92129715961C92EA
:104F60001E9214976115710559F0DB010D90002018
:104F7000E9F7AD0141505109461B570B0C948527A9
:104F80000895CF93DF93EC01FB018617970761F03B
:104F9000608171816115710529F0448155810E94FC
:104FA000852702C00E943A27CE01DF91CF91089554
:104FB000FC011182108213821282158214820C94D9
:104FC000C127CF93DF93D82FC92F6115710561F0E9
:104FD000DB010D900020E9F7AD0141505109461B5E
:104FE000570B0E94852702C00E943A278D2F9C2FC5
:104FF000DF91CF910895EF92FF920F931F93CF937C
:10500000DF93CDB7DEB7A1970FB6F894DEBF0FBE22
:10501000CDBF7C01CB01BA01F7011182108213824E
:10502000128215821482422F4E5F8E010F5F1F4F36
:105030000E945631BC01C7010E94E127A1960FB61C
:10504000F894DEBF0FBECDBFDF91CF911F910F91BE
:10505000FF90EF900895EF92FF920F931F93CF93DD
:10506000DF93EC017B010C811D816115710511F449
:1050700080E016C04115510591F0040F151FB801CD
:105080000E9466278823A1F3288139818C819D8124
:10509000B701820F931F0E94AE331D830C8381E002
:1050A000DF91CF911F910F91FF90EF900895CF93D3
:1050B000DF931F921F92CDB7DEB769831A8241E05A
:1050C00050E0BE016F5F7F4F0E942B280F900F9022
:1050D000DF91CF910895CF93DF93D82FC92FFB0194
:1050E00044815581608171810E942B28811104C007
:1050F0008D2F9C2F0E943A278D2F9C2FDF91CF91CF
:105100000895DC0114962D913C911597232B39F4C9
:1051100081E06115710511F0FB0108C00895DC0103
:10512000ED91FC916115710529F481E0908199233D
:1051300049F007C0CF010E94A5339C0181E0232BD9
:1051400009F080E00895FC0124813581621773071E
:1051500048F480819181009729F0FC01E60FF71F48
:105160008081089580E008950E94D3260E947B11DB
:10517000C9E2DAE20E94CB112097E1F30E94292ACA
:10518000F9CFFC0184859585FC01E05CFF4F20810F
:105190003181FC01EE5BFF4F80819181281B390B2F
:1051A0002F733327C9010895FC0184859585FC017F
:1051B000E05CFF4F40815181FC01EE5BFF4F20819D
:1051C00031814217530741F00190F081E02DE80F43
:1051D000F91F208130E002C02FEF3FEFC901089591
:1051E000FC0184859585FC01E05CFF4F4081518185
:1051F000FC01EE5BFF4F208131814217530781F0A4
:10520000A081B181A80FB91F8C91208131812F5FBE
:105210003F4F2F73332731832083282F30E002C084
:105220002FEF3FEFC9010895FC0186859785FC01AA
:10523000E05CFF4FDC01AE5BBF4F408151812D919F
:105240003C91119742175307C1F70895CF93DF930D
:10525000FC0186859785DC01A05CBF4F2D913C91B8
:1052600011972F5F3F4F2F733327EC01CE5BDF4F3A
:105270004881598124173507D9F30D90BC91A02D91
:10528000A80FB91F6C93A685B785A05CBF4F119678
:105290003C932E93A689B7892C9181E090E0058CF0
:1052A00002C0880F991F0A94E2F7282B2C9381E003
:1052B00090E0DF91CF910895FB01E05CFF4F2081EA
:1052C00031812F5F3F4F2F733327DB01AE5BBF4F21
:1052D0004D915C912417350739F0A081B181A60F5B
:1052E000B71F8C9331832083089508951F920F92E6
:1052F0000FB60F9211240BB60F922F933F934F933B
:105300005F936F937F938F939F93AF93BF93EF932D
:10531000FF938091C60063E079E00E945C29FF91D1
:10532000EF91BF91AF919F918F917F916F915F911D
:105330004F913F912F910F900BBE0F900FBE0F908A
:105340001F90189508951F920F920FB60F92112477
:105350000BB60F922F933F934F935F936F937F936F
:105360008F939F93AF93BF93EF93FF938091CE0062
:105370006BE778E00E945C29FF91EF91BF91AF91BC
:105380009F918F917F916F915F914F913F912F915D
:105390000F900BBE0F900FBE0F901F9018950895A1
:1053A0001F920F920FB60F9211240BB60F922F93EC
:1053B0003F934F935F936F937F938F939F93AF939D
:1053C000BF93EF93FF938091D60063EF77E00E9445
:1053D0005C29FF91EF91BF91AF919F918F917F9148
:1053E0006F915F914F913F912F910F900BBE0F9056
:1053F0000FBE0F901F90189508951F920F920FB631
:105400000F9211240BB60F922F933F934F935F93FC
:105410006F937F938F939F93AF93BF93EF93FF937C
:10542000809136016BE677E00E945C29FF91EF9155
:10543000BF91AF919F918F917F916F915F914F91AC
:105440003F912F910F900BBE0F900FBE0F901F90AA
:10545000189588E097E00E94C128892B11F00E94DE
:10546000752989EE96E00E94C128892B11F00E94CF
:10547000A2298AEC96E00E94C128892B11F00E9493
:10548000CF298BEA96E00E94C128892B11F00C9459
:10549000FC2908951F920F920FB60F9211240BB69C
:1054A0000F922F933F938F939F93EF93FF932091AE
:1054B000FF08309100098091010990910209281795
:1054C000390731F48091C1008F7D8093C10014C0F1
:1054D000E0910109F0910209E154F74F2081809198
:1054E00001099091020901968F73992790930209FF
:1054F000809301092093C600FF91EF919F918F91B6
:105500003F912F910F900BBE0F900FBE0F901F90E9
:1055100018951F920F920FB60F9211240BB60F928F
:105520002F933F938F939F93EF93FF93209177084F
:10553000309178088091790890917A082817390776
:1055400031F48091C9008F7D8093C90014C0E0912F
:105550007908F0917A08E95CF74F20818091790809
:1055600090917A0801968F73992790937A08809387
:1055700079082093CE00FF91EF919F918F913F91F9
:105580002F910F900BBE0F900FBE0F901F9018958C
:105590001F920F920FB60F9211240BB60F922F93FA
:1055A0003F938F939F93EF93FF932091EF07309159
:1055B000F0078091F1079091F2072817390731F42D
:1055C0008091D1008F7D8093D10014C0E091F107CC
:1055D000F091F207E155F84F20818091F107909109
:1055E000F20701968F7399279093F2078093F10742
:1055F0002093D600FF91EF919F918F913F912F9132
:105600000F900BBE0F900FBE0F901F9018951F921A
:105610000F920FB60F9211240BB60F922F933F9358
:105620008F939F93EF93FF932091670730916807C3
:105630008091690790916A072817390731F48091A2
:1056400031018F7D8093310114C0E0916907F091A1
:105650006A07E95DF84F20818091690790916A0798
:1056600001968F73992790936A0780936907209317
:105670003601FF91EF919F918F913F912F910F9064
:105680000BBE0F900FBE0F901F901895CF92DF9218
:10569000EF92FF92CF93DF93EC016A017B014115FA
:1056A00081EE580761057105F9F0EC89FD8981E00B
:1056B00090E00E8C02C0880F991F0A94E2F7808355
:1056C00060E079E08DE390E0A70196010E9430311F
:1056D000215031094109510956954795379527952C
:1056E000211580E1380798F0EC89FD89108260E887
:1056F00074E88EE190E0A70196010E9430312150BC
:105700003109410951095695479537952795E889FB
:10571000F9893083EA89FB892083EE89FF894081FA
:1057200081E090E09C010A8C02C0220F331F0A9492
:10573000E2F7422B4083EE89FF8940819C010B8C6C
:1057400002C0220F331F0A94E2F7422B4083EE89F6
:10575000FF8940819C010C8C02C0220F331F0A94E8
:10576000E2F7422B4083EE89FF8920810D8C02C035
:10577000880F991F0A94E2F7809582238083DF9136
:10578000CF91FF90EF90DF90CF900895CF9310923C
:105790000B0710920A0788EE93E0A0E0B0E0809338
:1057A0000C0790930D07A0930E07B0930F072BE300
:1057B00033E0309309072093080743E059E0509302
:1057C0001507409314074FEB58E050931707409389
:1057D000160745EC50E0509319074093180744EC26
:1057E00050E050931B0740931A0740EC50E0509351
:1057F0001D0740931C0741EC50E050931F07409356
:105800001E0746EC50E05093210740932007C4E068
:10581000C0932207F3E0F0932307E7E0E093240727
:1058200075E07093250761E0609326071092EC06FF
:105830001092EB068093ED069093EE06A093EF0690
:10584000B093F0063093EA062093E9064BE758E060
:105850005093F6064093F50647E358E05093F80658
:105860004093F7064DEC50E05093FA064093F9064A
:105870004CEC50E05093FC064093FB0648EC50E0A3
:105880005093FE064093FD0649EC50E0509300070C
:105890004093FF064EEC50E05093020740930107FF
:1058A000C0930307F0930407E0930507709306077E
:1058B000609307071092CD061092CC068093CE0617
:1058C0009093CF06A093D006B093D1063093CB0629
:1058D0002093CA0643EF57E05093D7064093D6066D
:1058E0004FEA57E05093D9064093D80645ED50E073
:1058F0005093DB064093DA0644ED50E05093DD060A
:105900004093DC0640ED50E05093DF064093DE0606
:1059100041ED50E05093E1064093E00646ED50E043
:105920005093E3064093E206C093E406F093E50645
:10593000E093E6067093E7066093E8061092AE06E1
:105940001092AD068093AF069093B006A093B10677
:10595000B093B2063093AC062093AB068BE697E08B
:105960009093B8068093B70687E297E09093BA06C3
:105970008093B90685E391E09093BC068093BB06C3
:1059800084E391E09093BE068093BD0680E391E0AE
:105990009093C0068093BF0681E391E09093C20686
:1059A0008093C10686E391E09093C4068093C3067A
:1059B000C093C506F093C606E093C7067093C80669
:1059C0006093C906CF910895CF92DF92EF92FF9234
:1059D0000F931F93CF93DF936C01EB017A01E60ED7
:1059E000F71E00E010E00BC06991D601ED91FC912B
:1059F0000190F081E02DC6011995080F191FCE15F1
:105A0000DF0591F7C801DF91CF911F910F91FF90B2
:105A1000EF90DF90CF900895DB010D900020E9F723
:105A2000AD0141505109461B570BDC01ED91FC9132
:105A30000280F381E02D1994AF92BF92CF92DF9252
:105A4000EF92FF920F931F93CF93DF937C016B0133
:105A500000E010E0C0E0D0E011C0D701ED91FC9172
:105A6000A080B180B801C6010E94A328682FC70199
:105A7000F5011995C80FD91F0F5F1F4FD601149656
:105A80008D919C9115970817190738F3CE01DF9176
:105A9000CF911F910F91FF90EF90DF90CF90BF902B
:105AA000AF900895DC01ED91FC910190F081E02D23
:105AB00019940F931F93CF93DF93EC016DE00E9435
:105AC000522D8C016AE0CE010E94522D9C01200FC4
:105AD000311FC901DF91CF911F910F9108950F934D
